:100000000C94D6020C9407030C9407030C9407037A
:100010000C9407030C9407030C9407030C94070338
:100020000C9407030C94CF220C94CF220C94CF2273
:100030000C9407030C9407030C9407030C94070318
:100040000C9407030C9407030C9407030C94070308
:100050000C9407030C9407030C9407030C944C2492
:100060000C9407030C94B81E0C948E1E0C9407037A
:100070000C9407030C9407030C9407030C940703D8
:100080000C9407030C9407030C9407030C940703C8
:100090000C94641E0C943A1E0C9407030C940703F2
:1000A0000C9407030C9407030C9407030C940703A8
:1000B0000C9407030C9407030C9407030C94070398
:1000C0000C9407030C9407030C9407030C94101E64
:1000D0000C94E61D0C9407030C94BC1D0C94921D0B
:1000E0000C9407037C237F236E2372237623B6238D
:1000F000832387238D23912395239B239F23A3234E
:10010000B623A923AD23B1230C947C230C9476232E
:100110000C94B6230C94A9230C94562B0C947223A4
:100120000C94AD230C9409030C946E230C94741B53
:100130000C9483230C9487230C948D230C942A0312
:100140000C94A3230C947E030C944C0B0C94D60BB0
:100150000C94621B0C94D70B0C9495230C94560BA7
:100160000C9491230C947F230C948E1B0C94B1233C
:100170000C945C1C0C940D1C0C948D090C94CF1ADF
:100180000C94A50B0C949B230C949F230C945E1C45
:100190000C94C41B0C94FA1A0C945A2B41542A4602
:1001A0000D00454E445F5452414E534D49545F46F5
:1001B000494C450053544152545F5452414E534DA3
:1001C00049545F46494C45005D005B6373756D3A69
:1001D000005D005B42696E6172792073697A653AED
:1001E0000041542B53424452420D0041542B534280
:1001F0004449580D0041542D4D5353544D0D004169
:10020000542B4353510D0053424449582074696D97
:10021000656F7574210D0A0057616974696E6720F6
:10022000666F72204353512072657472792E2E2EA0
:100230000D0A0057616974696E6720666F722053FA
:10024000424449582072657472792E2E2E0D0A0090
:10025000534244495820666174616C210D0A00497B
:100260006E636F6D696E67206D657373616765217D
:100270000D0A0053424449582073756363657373D4
:10028000210D0A000D0A005342444958204D4F20C9
:10029000636F64653A20000D0041542B534244576C
:1002A000543D000D0A00436865636B73756D3A0039
:1002B0002062797465735D005B000D0041542B531F
:1002C000424457423D00696E7465726E616C5365BD
:1002D0006E64526563656976650D0A00496E7465E2
:1002E000726E616C426567696E3A2073756363650F
:1002F0007373210D0A004154264B300D00415426E2
:1003000044300D00415445310D004E6F206D6F6437
:10031000656D2064657465637465642E0D0A004123
:10032000540D0043616C6C696E6720696E74657270
:100330006E616C426567696E0D0A00506F77657279
:10034000696E67206F6E20526F636B424C4F434B58
:100350002E2E2E210D0A00506F776572696E672070
:100360006F666620526F636B424C4F434B2E2E2EAE
:10037000210D0A003C3C20000D0A00576169746998
:100380006E6720666F7220726573706F6E73652082
:10039000000D0A003E3E20007C3C3E5E2B3D3F2F80
:1003A0005B5D3B2C2A225C0000002100240027001A
:1003B0002A002D0030003300010100000401070174
:1003C0000A0100002200250028002B002E00310029
:1003D000340002010000050108010B0105050505B7
:1003E000070508080808020202020A0A08080404AD
:1003F00004040101010101010101030303030303DB
:100400000303040707070C0C0C0C0C0C0C0C020269
:10041000020206060606060606060B0B0B0B0B0B66
:100420000B0B0102102020080810204010204080F3
:1004300002010201080402010102040810204080A8
:100440008040201008040201800402018040201036
:10045000080402010804020101020408102040807F
:10046000010204081020408000000A0B02090C0D54
:100470000E08070304010000000000000000000057
:10048000000000000000000000000000000000006C
:100490000000000012111000000000000000000029
:1004A000000000000000000000000000000000400C
:1004B0007A10F35A00A0724E18090010A5D4E80073
:1004C00000E87648170000E40B54020000CA9A3B8B
:1004D000000000E1F5050000809698000000404211
:1004E0000F000000A086010000001027000000009F
:1004F000E803000000006400000000000A000000A3
:1005000000000100000000002C76D888DC674F084E
:1005100023DFC1DFAE59E1B1B796E5E3E453C63A54
:10052000E651997696E8E6C28426EB898C9B62EDCB
:10053000407C6FFCEFBC9C9F40F2BAA56FA5F49085
:10054000055A2AF75C936B6CF9676DC11BFCE0E4FC
:100550000D47FEF520E6B500D0ED902E0300943552
:1005600077050080841E080000204E0A000000C8A5
:100570000C333333330F986E12831141EF8D2114F6
:10058000893BE65516CFFEE6DB18D1844B381BF7C6
:100590007C1D901DA4BBE424203284725E22810065
:1005A000C9F124ECA1E53D275A2B562B11241FBE7F
:1005B000CFEFD1E2DEBFCDBF00E00CBF13E0A0E083
:1005C000B2E0E2E3FBE600E00BBF02C007900D9251
:1005D000A232B107D9F72CE1A2E2B3E001C01D922B
:1005E000A131B207E1F712E0C5EDD2E000E006C0AC
:1005F00021970109802FFE010E947D2EC43DD10765
:1006000080E00807A9F70E9496240C9487350C9483
:100610000000DC015996ED91FC915A973097B9F0A2
:1006200083899489A589B6894285538564857585B2
:10063000841B950BA60BB70B811520E89207A1052B
:10064000B10538F08FEF9FE7A0E0B0E0089580E0BB
:1006500090E00895CF93DF931F92CDB7DEB7698303
:10066000DC01ED91FC910280F381E02D41E050E04E
:10067000BE016F5F7F4F19950F90DF91CF91089565
:10068000CF93DF93EC018D818823A1F18C8187FFCB
:100690002DC06E857F858889998941E00E941D1F44
:1006A000882341F1EA8980E2E89FF0011124DF010B
:1006B000AB5DBC4F1097F1F08D81823050F44B89C7
:1006C0005C896D897E895C964D935D936D937C9377
:1006D0005F978F89988DA98DBA8DEB5DFC4F938FB5
:1006E000828FB58BA48B8C818F778C83DF91CF9198
:1006F0000C94E21E80E0DF91CF910895FC01818D82
:10070000928D009711F00C94400308958F929F9260
:10071000AF92BF92CF92DF92EF92FF920F931F930F
:10072000CF93DF93EC018D81811102C080E077C00F
:100730000B891C892D893E89041715072607370761
:10074000A8F36A017B01823029F4CA86DB86EC8635
:10075000FD860DC0C114D104E104F10451F41E82E0
:100760001F82188619861A861B861C861D8681E0C4
:1007700056C08A849B84AC84BD84EB8DFC8D25851A
:1007800030E0275F3F4FB501A40141505109610995
:100790007109022E04C076956795579547950A947E
:1007A000D2F7D701C6010197A109B10904C0B695D6
:1007B000A795979587952A95D2F784179507A60749
:1007C000B70720F089288A288B2849F44F89588D4B
:1007D000698D7A8D4E835F836887798704C0841B17
:1007E000950BA60BB70B4C015D018E010A5F1F4FE5
:1007F00081149104A104B10409F4A7CF4E815F8153
:100800006885798598018B8D9C8D0E94062091E0EA
:10081000891A9108A108B1088111EACF87CFDF9129
:10082000CF911F910F91FF90EF90DF90CF90BF90ED
:10083000AF909F908F9008958F929F92AF92BF92AA
:10084000CF92DF92EF92FF920F931F93CF93DF939C
:1008500000D01F92CDB7DEB77C0180E2689F6001B7
:10086000112496012B5D3C4FD9011B969C919171EF
:1008700021F0842F827409F097C0142FF701628B46
:100880008091000290910102A0910202B0910302B6
:1008900086879787A08BB18BF601EB5DFC4F44896F
:1008A000558960E070E0BA0155274427D701579673
:1008B0004D935D936D937C935A97828D938DA0E0B9
:1008C000B0E0482B592B6A2B7B2BD70157964D93C1
:1008D0005D936D937C935A97D9011B968C91887187
:1008E00059F4848D958DA68DB78DF701838B948BEC
:1008F000A58BB68B81E012C0803109F055C09701FD
:100900002D5E3F4FD7015B968D919C915C970E9425
:100910008A20882309F448C084E0F7018583812F69
:100920008F70D70114968C931497F7011682178253
:10093000108611861A961D921D921D921C921D976B
:1009400016FF34C015968C91813071F511FF2CC0C3
:10095000F7014389548965897689452B462B472BB6
:1009600009F461C040E050E0BA01C7010E9486036B
:100970008823D1F0F7018788908CA18CB28CC38C2E
:10098000D48C82E090E0A0E0B0E0F6018083918317
:10099000A283B3839E012F5F3F4FB501A401C6011F
:1009A0000E940620811104C080E03DC081E03BC070
:1009B00000E010E09801B501A401C6010E94661F85
:1009C000882391F389809A80AB80BC80D6015796AA
:1009D0008C91803129F088EF9FEFAFEFBFE004C02A
:1009E00088EF9FEFA0E0B0E088169906AA06BB0644
:1009F00088F2D70157961D921D921D921C925A970C
:100A0000F701138A148A158A168A84818068848380
:100A1000C7010E944003882339F240E050E0BA0148
:100A2000C7010E9486030F900F900F900F90DF91E7
:100A3000CF911F910F91FF90EF90DF90CF90BF90DB
:100A4000AF909F908F900895CF93DF93EC010E9419
:100A50004003882311F01D8281E0DF91CF9108953A
:100A60003F924F925F926F927F928F929F92AF923E
:100A7000BF92CF92DF92EF92FF920F931F93CF938B
:100A8000DF93CDB7DEB72C970FB6F894DEBF0FBE5D
:100A9000CDBF5C01DC015B968D909C905C971696B7
:100AA000CD90DD90ED90FC901997C114D104E10434
:100AB000F10439F0BFEFCB1ADB0AEB0AFB0A312C49
:100AC00007C0F401C080D180E280F38033243394E6
:100AD000F40181859285A385B4859C01AD012F5FCA
:100AE0003F4F4F4F5F4F29873A874B875C872601DF
:100AF00037011D821E821F821886F401818592852E
:100B0000A385B4852D813E814F81588528173907EB
:100B10004A075B0708F063C089859A85AB85BC8569
:100B20008C159D05AE05BF0550F482E0C82ED12C72
:100B3000E12CF12C92E0492E512C612C712C9E015C
:100B40002F5F3F4FB701A601C4010E9406208823F2
:100B500009F445C089819A81AB81BC81892B8A2B9C
:100B60008B2B41F0260137019FEF491A590A690A78
:100B7000790A05C0C414D504E604F70491F02D8168
:100B80003E814F8158852F5F3F4F4F4F5F4F2D83E1
:100B90003E834F8358873FEFC31AD30AE30AF30A11
:100BA000ACCF0FEF1FEF2FEF3FE0B301A201C40165
:100BB0000E94661F882399F0D50116964D915D918C
:100BC0006D917C911997411551056105710549F0A9
:100BD00093018201C4010E94661F811102C080E05E
:100BE0002AC0D50116964D925D926D927C9219970E
:100BF000332051F0D301C2010196A11DB11DF401B2
:100C000080839183A283B383F5018789908DA18D21
:100C1000B28D892B8A2B8B2B69F4D50157964D9277
:100C20005D926D927C925A9714968C91149780687D
:100C300014968C9381E02C960FB6F894DEBF0FBE0D
:100C4000CDBFDF91CF911F910F91FF90EF90DF907B
:100C5000CF90BF90AF909F908F907F906F905F905C
:100C60004F903F9008958FB7F894809124038FBFE1
:100C7000089561E0FC0184810E944D23809123034B
:100C800081111092230308958EBD00000DB407FE5C
:100C9000FDCF8EB508958FEF0C9444060F931F93EC
:100CA000CF93DF93EB010E9440248B010E944B06FF
:100CB0008F3F49F00E944024601B710B6C177D0729
:100CC000A8F380E001C081E0DF91CF911F910F91E7
:100CD0000895CF93DF93EC018E81882389F08F8173
:100CE00098859C012F5F3F4F38872F838230924039
:100CF00018F40E944B06F3CFCE010E9439061E82E3
:100D0000DF91CF9108958CBD9DBD0895CF93DF9362
:100D1000EC0180912303811109C081E080932303BA
:100D200080912705909128050E94830660E08C81C0
:100D3000DF91CF910C944D23CF92DF92FF920F93CE
:100D40001F93CF93DF9300D01F92CDB7DEB76C0116
:100D5000F62E29833A834B835C830E946906C60181
:100D60000E9486066CE271E0C6010E944E068F2D3D
:100D700080640E94440608E110E05C814B813A8166
:100D80002981DA01C901002E04C0B695A79597956F
:100D900087950A94D2F729833A834B835C830E9418
:100DA00044060850110929813A814B815C81083F32
:100DB0008FEF180731F7FF2029F0E8E0FE1204C09A
:100DC00087E803C085E901C08FEF0E94440610E068
:100DD0000E944B06F601828787FF04C01F3F11F077
:100DE0001F5FF6CF0F900F900F900F90DF91CF9174
:100DF0001F910F91FF90DF90CF900895AF92BF9217
:100E0000CF92DF92EF92FF920F931F93CF93DF93D6
:100E1000EC016901C801820F931F8130924008F0F4
:100E200070C08E81882371F088819981AA81BB81ED
:100E3000481759076A077B0729F48F819885C816D8
:100E4000D906B0F5488359836A837B838B858330C9
:100E500039F089E0440F551F661F771F8A95D1F737
:100E60009A01AB0161E1CE010E949C06882319F032
:100E700083E08D8346C00E9440245B010E944B06A4
:100E80008A878F3F49F40E9440246A197B096D329A
:100E90007140A0F38FE003C08E3F31F08DE08D8371
:100EA000CE010E9439062DC018861F8281E08E83F4
:100EB0008F8198858C159D0540F40E944B068F818B
:100EC0009885019698878F83F3CF6701E00EF11E16
:100ED000CE14DF0431F00E944B06F60181936F01BE
:100EE000F7CF8F819885080F191F18870F83898581
:100EF000882319F00115124048F0CE010E946906BE
:100F000005C0CE010E94390680E001C081E0DF917A
:100F1000CF911F910F91FF90EF90DF90CF90BF90F6
:100F2000AF900895EF92FF920F931F93CF93DF93AB
:100F3000EC017901411551056105710511F482E15A
:100F40003CC08B85833039F089E0440F551F661F04
:100F5000771F8A95D1F79A01AB0168E1CE010E9413
:100F60009C06882311F084E028C08EEF0E9444067E
:100F700087018EEFF81AF80181918F010E944406D3
:100F80000E151F05C1F78FEF0E9444068FEF0E94D8
:100F900044060E944B068A878F71853031F081E1CB
:100FA0008D83CE010E94390609C068E572E0CE014A
:100FB0000E944E06811107C085E18D83CE010E94FB
:100FC000390680E013C020E030E0A9016DE0CE01D9
:100FD0000E949C06811104C00E944B06882311F0D8
:100FE00084E1EBCFCE010E94390681E0DF91CF9101
:100FF0001F910F91FF90EF9008952F923F924F9283
:101000005F926F927F928F929F92AF92BF92CF9298
:10101000DF92EF92FF920F931F93CF93DF9300D055
:101020001F92CDB7DEB78C015B011A01DC0115966A
:101030008C9115978130C9F414968C9181FF15C05D
:1010400082FF1BC0F80143895489658976898285AE
:101050009385A485B58584179507A607B70769F01A
:10106000C8010E948603811108C081E090E0F80168
:101070009383828380E090E039C1610183C0D8010D
:101080005B968D919C915C97FC01248121502A01F3
:101090003B0139E076946794579447943A95D1F799
:1010A000722E74207A01F1E0FF22772009F476C0D5
:1010B00080E092E08E199F0946018C159D0508F489
:1010C0004C01D8015B962D913C915C9716968D91C1
:1010D0009D910D90BC91A02D0297A109B109F90134
:1010E000058404C0880F991FAA1FBB1F0A94D2F75A
:1010F0004685578560897189840F951FA61FB71F84
:101100009C01AD01270D311D411D511D29013A01E1
:10111000811432E0930609F088C08091000290911A
:101120000102A0910202B091030284159505A60563
:10113000B70559F48FEF9FEFDC0180930002909385
:101140000102A0930202B09303029501B301A20130
:1011500080912505909126050E949207882309F425
:1011600084CF9EEFB91AC818D908F80182859385F3
:10117000A485B585880D991DA11DB11D8287938712
:10118000A487B587D8011A964D915D916D917C9198
:101190001D97C114D10409F072CF87C0E114F10486
:1011A00009F086CF16964D915D916D917C911997BE
:1011B000411551056105710559F457968D919D9121
:1011C0000D90BC91A02D0097A105B10541F521C05E
:1011D0009E012F5F3F4F0E940620882309F44BCFCA
:1011E00089819A81AB81BC81F801238D348DF9010D
:1011F0002789203129F048EF5FEF6FEF7FE004C0CF
:1012000048EF5FEF60E070E084179507A607B70727
:1012100030F0C8010E94300581114ACF26CFF80175
:1012200086839783A087B18743CFE114F10429F522
:10123000D8011A964D915D916D917C911D975396B1
:101240008D919D910D90BC91A02D481759076A076B
:101250007B0798F00E94E21E882309F406CF409293
:101260000002509201026092020270920302809189
:10127000B91B81608093B91B08C041E0C301B20172
:101280000E941D1F882309F4F0CED501F701EB5D04
:10129000FC4FCF01880D991DE817F90719F02D9122
:1012A0002193FACFA80CB91C5ECF53968D919D91D6
:1012B0000D90BC91A02D84179507A607B70740F4A1
:1012C000F801438B548B658B768B84818068848393
:1012D000D80114968C9183FD02C0C10107C0C801DA
:1012E0000E944003882309F4C0CEF7CF0F900F90DF
:1012F0000F900F90DF91CF911F910F91FF90EF9082
:10130000DF90CF90BF90AF909F908F907F906F9025
:101310005F904F903F902F900895CF93DF93EC0113
:10132000898D9A8D009739F481E090E09B838A83C0
:1013300080E090E00BC0FC01138212820E94FD0746
:10134000E98DFA8D22813381232B71F7DF91CF91C3
:101350000895FC01DB0112968D919C911397938364
:10136000828386E292E09183808314968C91149715
:10137000848315968C911597858316964D915D9172
:101380006D917C91199746835783608771871A9670
:101390004D915D916D917C911D9742875387648734
:1013A00075871E964D915D916D917C915197468701
:1013B0005787608B718B52968C915297828B539684
:1013C0004D915D916D917C915697438B548B658BBC
:1013D000768B57964D915D916D917C915A97478B85
:1013E000508F618F728F5B968D919C915C97948FDB
:1013F000838F0895CF93DF93EC01898D9A8D0097A9
:1014000041F00E942405898D9A8D0E94352F1A8EF5
:10141000198EDF91CF910895EF92FF920F931F9352
:10142000CF93DF93EC017B018A011B821A8288EE45
:1014300093E0A0E0B0E08C839D83AE83BF838EE316
:1014400092E0998388838DE190E00E94A02E9A8F8C
:10145000898F009779F02DE1F701DC0101900D9261
:101460002A95E1F74CE050E0B801CE010C960E94BD
:10147000F630188EDF91CF911F910F91FF90EF9072
:1014800008952F923F924F925F926F927F928F9228
:101490009F92AF92BF92CF92DF92EF92FF920F9303
:1014A0001F93CF93DF931F921F92CDB7DEB7FC013E
:1014B0008581882309F4D9C0848180FFD6C021E0CA
:1014C0002A83438954896589768982859385A48591
:1014D000B585481759076A077B0709F41A826F0117
:1014E0003A81832F90E0DE0111964D013F01B6E075
:1014F0006B0E711C892B09F47DC0D6011A964D9193
:101500005D916D917C911D975A01B1E0BB22F6016E
:1015100025811A012B0189E056944794379427942A
:101520008A95D1F7838D948D223061F4FC01828DF0
:10153000938DA48DB58DBC01CD01620D731D841DED
:10154000951D45C0DC0114961C9111501221A11467
:10155000B104D1F4111118C0452B462B472B51F47F
:10156000F6018789908DA18DB28D86839783A087A0
:10157000B1870AC0468157816085718593010E94B9
:101580000620882309F471C0F601238D348D8681ED
:101590009781A085B1850297A109B109AC01BD0170
:1015A000F901058404C0440F551F661F771F0A9474
:1015B000D2F786859785A089B189840F951FA61FCC
:1015C000B71FBC01CD01610F711D811D911DD60199
:1015D00014962C9126FF14C0009100021091010274
:1015E000209102023091030260177107820793076E
:1015F00051F506C0FA81FF23C1F1898190E037C01F
:1016000040E00E941D1F882381F1F501EB5DFC4F36
:10161000D401CF010196E817F90719F021912D9314
:10162000FACFEFEF8E1A9E0AF60182859385A48584
:10163000B5850196A11DB11D82879387A487B587C3
:1016400080E090E057CF740101E010E09501AB011C
:10165000BC0180912505909126050E94FE068823F5
:1016600021F0BFEF8B1A9B0ADFCF8FEF9FEF0F9018
:101670000F90DF91CF911F910F91FF90EF90DF902E
:10168000CF90BF90AF909F908F907F906F905F9022
:101690004F903F902F900895FC01818D928D00977F
:1016A00011F00C94410A8FEF9FEF08950F931F9351
:1016B000CF93DF93FC01818D928D0097B9F0EF01FC
:1016C0000E94410A8C010F3F8FEF180791F0898D1E
:1016D0009A8DFC0142855385648575854150510979
:1016E000610971090E948603C80105C080E090E08D
:1016F00002C08FEF9FEFDF91CF911F910F9108955F
:10170000FC0180859185248135818217930750F4EF
:10171000208131812115310529F0D901A80FB91F88
:101720002C9101C020E0621304C00196918780874C
:1017300002C01186108681E040855185268137815F
:101740004217530709F080E008950F931F93CF933A
:101750008C01C62FDC0114968C9114971596ED918F
:10176000FC911697882319F08481958102C08281AB
:101770009381009741F0DC01ED91FC910190F081A3
:10178000E02D6C2F1995F8018481811103C0E0E0F0
:10179000F0E002C0E0E0F0E0309711F08C2F1995F6
:1017A00081E090E0CF911F910F910895089580E01E
:1017B00090E00895A89568EE73E080E090E00E94C4
:1017C000062481E008952F923F924F925F926F928C
:1017D0007F928F929F92AF92BF92CF92DF92EF92C1
:1017E000FF920F931F93CF93DF93CDB7DEB7C05413
:1017F000D1090FB6F894DEBF0FBECDBFFC01EC5986
:10180000FD4FE080F1801C0122E9221A2DEF320AFF
:10181000D1015F962C915F97211183C39AAF89AF55
:1018200081E05F968C934101B6E08B0E911C66ECD3
:1018300072E0C4010E94F11CF101868D81116EC31A
:10184000C9ACDAACF2EFCF1AFEEFDF0A20E041E0DC
:1018500009F489C0E114F10409F485C06CEB72E06D
:10186000C1010E94681951012DE0A20EB11C27018F
:10187000612C712C2AE0B301A201C5010E942A1D2E
:101880002AE0B301A201D1018D919C910E942A1DF1
:1018900021E040E06AEB72E0C1010E94681906EEA7
:1018A00012E020E030E040E050E060E070E0C10194
:1018B0000E949319882309F47FC0EC0CFD1C00E002
:1018C00010E0CE14DF04A9F0F10180819181DEAE39
:1018D000CDAEDC01ED91FC910190F081E02DD601BF
:1018E0006D916D011995EDADFEAD8081080F111D53
:1018F000E8CF68EB72E0C5010E94F11C2AE0B30159
:10190000A201C5010E942A1D60EB72E0C5010E9480
:10191000F11C66EA72E0C4010E94F11CA80160E0BB
:1019200070E02AE0C4010E942A1D63EA72E0C4014B
:101930000E94F11CD1018D919C91DC01ED91FC91F3
:101940000190F081E02D612F1995F1018081918145
:10195000DC01ED91FC910190F081E02D602F199553
:101960000EEE12E00EC069E972E0C1010E94681932
:1019700021E040E067E972E0C1010E94681903EFCD
:1019800012E020E030E040E050E060E070E0C101B3
:101990000E949319882381F00E94402421966CAF05
:1019A0007DAF8EAF9FAF2197FE0131963F015E0163
:1019B000F7E3AF0EB11C93C00E94DA0BAFC2D101A6
:1019C0005E968C918111AAC021E041E06FEF71E039
:1019D000C1010E94681903EF12E028EF32E042E0F3
:1019E00050E0B301C1010E949319882309F48CC00F
:1019F0008981082E000C990BC0970A9708F094C0B3
:101A0000C3010E9425317C01C12CD12CC114D10409
:101A100009F084C2F10184A181118CC0D101929698
:101A20008D919C919397E816F9060CF467C218AE55
:101A30001FAA1EAA1DAA1CAA1BAA1AAA19AA18AA7A
:101A40001FA61EA61DA621E041E06BEE71E0C101BC
:101A50000E94681903EF12E027E033E040E250E013
:101A6000B301C1010E94931981119CC00E94DA0B3D
:101A7000882309F4D6C093E0C92ED12CCD2809F0D3
:101A80004DC267E872E0C4010E94F11C0FA918ADB5
:101A9000A80160E070E02AE0C4010E942A1D64E809
:101AA00072E0C4010E94F11C0530110508F4BDC0AC
:101AB000C8018D7F0C9709F41EC20031110509F48D
:101AC0001AC263E372E0C4010E94F11CF10166894D
:101AD0007789C1010E949F1A882309F41FC20E94BE
:101AE0004024DC01CB0121962CAD3DAD4EAD5FAD68
:101AF0002197821B930BA40BB50B803E9349A44006
:101B0000B10508F45CCF05C20E94DA0BE12CF12C80
:101B100081110CC034E0C32ED12C78CFE12CF12CF4
:101B20004AE0C42ED12C72CFE12CF12C23E0C22E3E
:101B3000D12C6CCFF10182A193A1E816F9060CF427
:101B40006DCF21E041E065EF71E0C1010E946819AD
:101B500003EF12E02EEF32E048E150E0B301C101A3
:101B60000E949319811108C00E94DA0B20E088239B
:101B700081F083E090E00FC08981082E000C990B62
:101B80000E94BB3021E0892B09F420E080E090E046
:101B900002C084E090E0892B09F0C0C1222309F43F
:101BA000ADC13CCFBAA2A9A225E330E02C0F3D1F66
:101BB0003CA32BA343E350E04C0F5D1F5EA34DA35A
:101BC00081E390E08C0F9D1F98A78FA3AFE2B0E058
:101BD000AC0FBD1FBAA7A9A7EDE2F0E0EC0FFD1F07
:101BE000FCA7EBA79E012F5D3F4F290100E010E00D
:101BF000C30160E173E00E946A31009709F43BCFB2
:101C0000D201ED90FD902D010E944331F7017183C7
:101C100060830F5F1F4F80E090E00630110549F7A9
:101C20002DCF84E0C82ED12C29CFE9ACFAACFEE947
:101C3000EF1AFDEFFF0A63E772E0C4010E94F11C96
:101C40008DA59EA5D1015D969C938E935C978BA9E3
:101C50009CA9019709F048C1A9ACBAACA114B10480
:101C600009F442C16FE572E0C4010E94F11C21E059
:101C700041E061EE71E0C1010E94681903E113E0E7
:101C800020E030E040E050E060E070E0C1010E9400
:101C90009319882309F490CE0E9440242B013C0123
:101CA0000E944024F101A08DB18D9B01AC0124194B
:101CB00035094609570929AF3AAF4BAF5CAF28EE5B
:101CC00033E00E94852E29AD3AAD4BAD5CAD2617B1
:101CD00037074807590788F40E94DA0B882309F46C
:101CE0001DC1F10180819181DC01ED91FC910084A5
:101CF000F185E02D199502979CF2F1018081918187
:101D0000DC01ED91FC910084F185E02D199502979D
:101D10000CF404C1D1018D919C91DC01ED91FC91F9
:101D20000284F385E02D1995D82EF10180819181EF
:101D3000DC01ED91FC910284F385E02D199500E022
:101D400010E01D2D080F191F6101BDE0CB0ED11C45
:101D500063ED71E0C6010E94F11CA80160E070E033
:101D60002AE0C6010E942A1D61ED71E0C6010E94B1
:101D7000F11C812C912C8016910608F062C00E9403
:101D8000DA0B882309F4CAC0F10180819181DC015A
:101D9000ED91FC910084F185E02D1995892B11F1CD
:101DA000F10180819181DC01ED91FC910284F38548
:101DB000E02D1995BFEF8B1A9B0AA114B10491F085
:101DC000E114F10479F0F70120813181232B51F0E6
:101DD000D5018C9380819181019791838083F50156
:101DE00031965F010E944024F101A08DB18D9B01CD
:101DF000AC01241935094609570929AF3AAF4BAF51
:101E00005CAF28EE33E00E94852E29AD3AAD4BAD94
:101E10005CAD261737074807590708F4ACCF7EC0DA
:101E20000E94DA0B882309F479C0D1018D919C912D
:101E3000DC01ED91FC910084F185E02D199502976C
:101E4000A4F40E944024F101A08DB18D4B015C01EE
:101E500084189508A608B70828EE33E00E94852E5E
:101E600086169706A806B906D8F2F10180819181FD
:101E7000DC01ED91FC910084F185E02D199502972C
:101E80000CF44CC0D1018D919C91DC01ED91FC9141
:101E90000284F385E02D1995982EF10180819181BE
:101EA000DC01ED91FC910284F385E02D19955C0134
:101EB0006AEC71E0C6010E94F11C40E050E0592D2F
:101EC0004A0D5B1D60E070E02AE0C6010E942A1DF9
:101ED00068EC71E0C6010E94F11CE114F104F1F01C
:101EE000F701118300831AC0E114F104B9F0D7019E
:101EF0001D921C9213C060E572E00DC068E172E0B3
:101F0000C4010E94F11CD10154966D917C915597AA
:101F1000E0CD67E072E0C4010E94F11CD1015F9640
:101F20001C92C05CDF4F0FB6F894DEBF0FBECDBF72
:101F3000DF91CF911F910F91FF90EF90DF90CF90A5
:101F4000BF90AF909F908F907F906F905F904F90D9
:101F50003F902F900895CF93DF93EC018881998172
:101F6000DC01ED91FC910084F185E02D19951816A6
:101F7000190654F488819981DC01ED91FC91028469
:101F8000F385E02D1995EACF88819981DC01ED91E7
:101F9000FC910084F185E02D199518161906A4F717
:101FA00088819981DC01ED91FC910284F385E02D1B
:101FB00019958A3049F7CC57DF4F19821882DF9183
:101FC000CF9108954F925F926F927F928F929F92DE
:101FD000AF92BF92CF92DF92EF92FF920F931F9337
:101FE000CF93DF93EC013C0180ED680E711C8E01F4
:101FF0000C571F4F7E0191EDE90EF11C87E7582E1B
:10200000442443949CEE892E95E0992E22E7C22E1B
:1020100025E0D22E5E01A3EDAA0EB11C8881998124
:10202000DC01ED91FC910084F185E02D19951816E5
:1020300019060CF083C0F301808181116BC0D701B8
:102040008D919C91009761F0DC01ED91FC910084F1
:10205000F185E02D1995892B09F45CC0F7010EC0BC
:10206000F50180819181DC01ED91FC910084F18585
:10207000E02D1995892B09F44DC0F50180819181DE
:10208000DC01ED91FC910284F385E02D19958A30F5
:1020900031F590916606E0916406F0916506E90FCE
:1020A000F11D10822091640630916506B5E02C3E4A
:1020B0003B0749F4D0926506C09264063093EB0565
:1020C0002093EA0508C09092650680926406D0923B
:1020D000EB05C092EA051092660640926706E09111
:1020E0006406F09165069091660621E0290F209321
:1020F0006606E90FF11D808390916606983710F00F
:10210000509266068A3039F4F801808191811182FB
:10211000108216C080E0D8012D913C911197203893
:1021200031054CF4FE01E20FF31F84832F5F3F4F14
:102130002D933C9373CFF8011182108280E090E0E0
:10214000DF91CF911F910F91FF90EF90DF90CF9093
:10215000BF90AF909F908F907F906F905F904F90C7
:102160000895FF920F931F93CF93DF93EC010E948A
:102170005735182FCE0101960E945735F82ECE0103
:1021800002960E945735082FCE0103960E945735BC
:102190004F2D50E060E070E0762F652F542F4427DC
:1021A000410F511D611D711D10E020E030E09801CC
:1021B00011270027400F511F621F731F90E0A0E0FE
:1021C000B0E0B82FAA27992788278A019B01080F1A
:1021D000191F2A1F3B1FC901B801DF91CF911F9121
:1021E0000F91FF9008950C945F3564E670E080E0F5
:1021F00090E00E9406240FB6F894A89580916000A4
:10220000886180936000109260000FBEE4E6F0E009
:1022100080818160808383B7817F846083BF83B73F
:10222000816083BF889583B78E7F83BF0895CF93E6
:10223000DF93BC01C0914816D0914916209721F434
:10224000C0914A16D0914B16CE010E94151D65EF24
:1022500072E0CE01DF91CF910C94151DCF92DF92E9
:10226000EF92FF920F931F93CF93DF93EC016A01DC
:102270007B01E889F98982E080834115514E61052F
:102280007105B1F060E079E08DE390E0A70196017F
:102290000E945B2E89019A0101501109210931091F
:1022A0003695279517950795980101151041A8F0C7
:1022B000E889F989108260E874E88EE190E0A7016E
:1022C00096010E945B2EDA01C9010197A109B109AB
:1022D000B695A795979587959C01EC85FD853083EC
:1022E000EE85FF852083188EEC89FD8986E080834A
:1022F000EA89FB89808180618083EA89FB8980810A
:1023000088608083EA89FB89808180688083EA898C
:10231000FB8980818F7D8083DF91CF911F910F9109
:10232000FF90EF90DF90CF9008950F931F93CF937E
:1023300091E0982790934B1120914D1130914E11BF
:102340002F3F0FEF300709F44FC0C82F61E0822FF5
:102350000E94CA23CC23B1F06BE373E083E391E1E5
:102360000E94F11C61E080914D110E944D230E945A
:1023700040246093521170935311809354119093A1
:10238000551132C00E9440240091521110915311F6
:102390002091541130915511DC01CB01801B910B20
:1023A000A20BB30B803D17E09107A105B10570F4B6
:1023B00040ED57E060E070E08A019B01081B190BBB
:1023C0002A0B3B0BC901B8010E94062467E573E0A4
:1023D00083E391E10E94F11C60E080914D11CF9167
:1023E0001F910F910C944D23CF911F910F91089540
:1023F000CF92DF92EF92FF920F931F93CF93DF93D1
:1024000000D000D0CDB7DEB780914C11811197C0BC
:1024100081E080934C1163E273E083E391E10E94D9
:10242000F11C80914B11882369F181E00E94951184
:102430000E9440246B017C010E944024DC01CB01FE
:102440008C199D09AE09BF09843F9140A105B105D2
:1024500038F40E94DA0B8111EFCF04E010E066C07F
:102460000E9440246B017C010E944024DC01CB01CE
:102470008C199D09AE09BF098038994AA340B1055E
:1024800020F068C001E010E051C021E041E06FE1C0
:1024900073E08DE291E10E94681903EF12E020E001
:1024A00030E040E050E060E070E08DE291E10E94B9
:1024B0009319182F0E94DA0B882379F21123A1F2C5
:1024C00084E093E09A8389838DEF92E09C838B83F1
:1024D00086EF92E09E838D83CE0101967C016E0192
:1024E00097E0C90ED11CF701619171917F0121E044
:1024F00041E08DE291E10E94681903EF12E020E0D3
:1025000030E040E050E060E070E08DE291E10E9458
:1025100093198823B9F0EC14FD0429F76CED72E0EF
:1025200083E391E10E94F11C00E010E010924C1155
:1025300001151105C1F080E00E94951114C009E059
:1025400010E011C00E94DA0B882309F486CF03E063
:1025500010E0ECCF6AE073E083E391E10E94F11CAC
:1025600005E010E0E3CFC80126960FB6F894DEBF71
:102570000FBECDBFDF91CF911F910F91FF90EF90D4
:10258000DF90CF900895CF92DF92EF92FF92CF939A
:10259000DF93C82FD62F80918F0A9091900ADC018B
:1025A000ED91FC910084F185E02D1995181619061E
:1025B00064F480918F0A9091900ADC01ED91FC9176
:1025C0000284F385E02D1995E6CFA8950E9440245A
:1025D0006B017C010E944024AB01BC014C195D09D8
:1025E0006E097F09403A5F406105710558F5A8956D
:1025F0006C2F80918F0A9091900A0E94EA1C64EFE0
:1026000071E080E090E00E94062480918F0A909112
:10261000900ADC01ED91FC910084F185E02D199583
:1026200018161906BCF680918F0A9091900ADC0169
:10263000ED91FC910284F385E02D1995D813CACF52
:1026400081E001C080E0DF91CF91FF90EF90DF90BB
:10265000CF9008952F923F924F925F926F927F9208
:102660008F929F92AF92BF92CF92DF92EF92FF92A2
:102670000F931F93CF93DF93CDB7DEB7C756D10922
:102680000FB6F894DEBF0FBECDBF5C014B01A6961E
:102690004FAFA6973E018EE1680E711C63E575E0B1
:1026A000C3010E94A9091C821B8286E292E09A83E0
:1026B00089831E8264018E010F5F1F4F2301180161
:1026C0006FE270E0C6010E94E430009709F442C056
:1026D000F60120812F3221F4FFEFCF1ADF0AF0CF6D
:1026E0008C198D3008F08CE0E82EF12CA701B60192
:1026F000CE01885A9F4F0E94F630E8E5F0E0EC0FDB
:10270000FD1FEE0DFF1D1082C8010E942405F80177
:102710008581882351F01EAE1DAE86E292E09CAF0B
:102720008BAF21961FAE219721C021E0AE01485A00
:102730005F4FB201C8010E94F320882361F3CE0CE1
:10274000DF1CC2010E942405942D852D2801092F2C
:10275000182FB6CFC60188199909A8969FAF8EAFDA
:10276000A897B201CE01CB960E94A909A896EEAD1A
:10277000FFADA8978E0E9F1EF4018081811109C0C4
:10278000BE01655C7F4FC1010E94A9094DE153E084
:102790004BC019A218A286E292E09F8F8E8F1BA2D7
:1027A00021968FAD2197811113C0F50113821282FA
:1027B00088EE93E0A0E0B0E084839583A683B7839E
:1027C0008EE392E091838083128E118E148630C046
:1027D0008250A6962FADA697A401823040F463E5FF
:1027E00075E0C3010E94F32081110DC0DECFBE0150
:1027F000655C7F4FC3010E94F3208823B1F2CE01B4
:10280000CB960E942405A6968FADA697867039F0C8
:1028100049A95AA96BA97CA9C3010E948603B301E7
:10282000C1010E94A909A401B101C5010E940C0ABD
:10283000C501C959DF4F0FB6F894DEBF0FBECDBF3B
:10284000DF91CF911F910F91FF90EF90DF90CF908C
:10285000BF90AF909F908F907F906F905F904F90C0
:102860003F902F9008958F929F92AF92BF92CF92F8
:10287000DF92EF92FF92CF93DF93C82F89E295E02A
:102880009093260580932505CC2369F1C53010F07F
:1028900080E00DC140E060E070E0CB010E941D1FB0
:1028A0008823B1F320E1C29FC00111248B5E9C4FAD
:1028B000FC01E254FE4F20812F7751F73C96408176
:1028C000518162817381443651056105710500F3C0
:1028D0003497C080D180E280F380C114D104E10438
:1028E000F10421F4D5CFC12CD12C760140E0C701F1
:1028F000B6010E941D1F882359F2809130039091E8
:1029000031038115924021F6A0913503AA2309F4E1
:10291000BFCF60913303709134036115710509F4E1
:10292000B7CF20913203222309F4B2CFA0934705F9
:102930002093390580E030E0E1E0F0E0C82FAF01FE
:10294000082E02C0440F551F0A94E2F724173507DA
:1029500041F0982F8F5F983089F789E08093420586
:1029600097CF8093420520913B0330913C03211582
:10297000310519F040E050E008C020914903309142
:102980004A0340914B0350914C0320933A053093F6
:102990003B0540933C0550933D0546015701860E8B
:1029A000971EA11CB11C8092480590924905A092E7
:1029B0004A05B0924B05E0913603F0913703F0934E
:1029C0004E05E0934D05B0E00E946D35860E971ED2
:1029D000A81EB91E80924F0590925005A0925105F5
:1029E000B092520585E0EE0FFF1F8A95E1F7E150A6
:1029F000FE4FEF2FFF27E6958E0E9F1EA11CB11CE8
:102A00008092430590924405A0924505B0924605F8
:102A100020913803309139032115310521F0A901A6
:102A200060E070E008C0409145035091460360911A
:102A3000470370914803D701C60188199909AA096B
:102A4000BB09840F951FA61FB71F04C0B695A79595
:102A500097958795CA95D2F780933E0590933F0549
:102A6000A0934005B0934105853F2FE09207A10553
:102A7000B10510F48CE018C0853F9F4FA105B1054A
:102A800010F480E111C08091510390915203A09104
:102A90005303B091540380934F0590935005A09336
:102AA0005105B093520580E280934C0581E0DF919F
:102AB000CF91FF90EF90DF90CF90BF90AF909F901D
:102AC0008F9008950F931F93CF93DF931F921F92C0
:102AD000CDB7DEB78C0169837A830E944B1669817A
:102AE0007A81C8010F900F90DF91CF911F910F91C4
:102AF0000C94731D80916F1A9091701ADC01ED9106
:102B0000FC910084F185E02D199518161906DCF565
:102B100080916F1A9091701ADC01ED91FC91028402
:102B2000F385E02D19952091731B3091741BF901E9
:102B3000E159F54E84832F5F3F4F3093741B2093F0
:102B4000731B20917B1B30917C1BF901EB58F44ED9
:102B50009081981307C02F5F3F4F30937C1B2093C9
:102B60007B1B04C010927C1B10927B1B80917B1BF3
:102B700090917C1B069709F0BDCF10927C1B1092A0
:102B80007B1B81E0089580E00895FF920F931F93CF
:102B9000CF93DF93CDB7DEB7A8970FB6F894DEBF1B
:102BA0000FBECDBF8C01F62ECA01B9011CA21BA21B
:102BB0001EA21DA218A61FA22AE0AE014F5F5F4F02
:102BC0000E949531BE016F5F7F4FCE0183960E94B8
:102BD000AF1C8FA198A5F801F38EABA1BCA10F5D2E
:102BE0001F4F9C012150310940E050E0BC0186306C
:102BF000910514F065E070E046175707BCF42817FC
:102C0000390710F4109729F41092220362E273E05E
:102C100003C0BD01620F731FFB016081F801629365
:102C20008F014F5F5F4F21503109E0CFCE01839676
:102C30000E94D01CA8960FB6F894DEBF0FBECDBF81
:102C4000DF91CF911F910F91FF9008950F931F93E4
:102C5000CF93DF93EC018B01198218821B821A82B9
:102C60001D821C828617970751F0FB0160817181DC
:102C70006115710521F0448155810E946F1CF80196
:102C8000848195819F838E8319861886DF91CF91E9
:102C90001F910F910895DC015996ED91FC915A977F
:102CA000309719F08581811101C0FFCF08950F93EE
:102CB0001F93CF93DF93CDB7DEB7A7970FB6F894E6
:102CC000DEBF0FBECDBF8C010E944B166FE173E0DB
:102CD000C8010E94151D0E9440241BA21AA21DA219
:102CE0001CA21FA21EA22AE0AE014F5F5F4F0E94EE
:102CF000C131BE016F5F7F4FCE0182960E94AF1C33
:102D0000BE016E5D7F4FC8010E94731DCE01829689
:102D10000E94D01C65EF72E0C8010E94151DA796A5
:102D20000FB6F894DEBF0FBECDBFDF91CF911F91DC
:102D30000F910895DC015996ED91FC915A973097C7
:102D400041F02581222329F00E94090321E0892BEB
:102D500009F420E0822F0895FF920F931F93CF93E1
:102D6000DF93CDB7DEB76B970FB6F894DEBF0FBE1B
:102D7000CDBF8C01F62E65E070E080E090E00E940F
:102D80000624C8010E94FA0965E070E080E090E046
:102D90000E940624F80182A193A10E94B1109B0118
:102DA000AC016F2DC8010E94C51565E070E080E0A0
:102DB00090E00E940624B801655E7F4F41E0CE019D
:102DC00001960E942A138B819C81F8019383828350
:102DD0008D819E81AF81B88584839583A683B783D7
:102DE00089859A85AB85BC8580879187A287B387C3
:102DF0008DE0FE013D96D8011C9601900D928A95BA
:102E0000E1F78A8D9B8DF801928F818F65E070E0EC
:102E100080E090E00E9406246B960FB6F894DEBF27
:102E20000FBECDBFDF91CF911F910F91FF900895FD
:102E30002F923F924F925F926F927F928F929F92CA
:102E4000AF92BF92CF92DF92EF92FF920F931F93B8
:102E5000CF93DF93EC0186E48B8F80E38C8F8D8F93
:102E60008E8F8F8F88A319A265E3262E71E1C72E5E
:102E700074E0D72EE7E5AE2EE4E0BE2EF2E59F2EFD
:102E8000A0E58A2EB3E0FB2E16E0312E02E0E02E04
:102E9000109234051092320510922F0510922E05D3
:102EA00020922D050E9440242B013C0161E080917D
:102EB0002D050E94CA2361E080912D050E944D23BB
:102EC0001FB7F8948091B81B811125C0F601949129
:102ED000F5018491E92FF0E0EE0FFF1FE855FC4F5C
:102EE000A591B4919C91892321F461E085E30E942E
:102EF0004D2361E085E30E94CA238CB580618CBDBF
:102F00008CB580648CBD61E084E30E94CA2361E0DB
:102F100083E30E94CA238091B81B8F5F8093B81B04
:102F20001FBF909227051092280580912705909148
:102F300028050E9483061AE08FEF0E944406115074
:102F4000D9F7820189E295E00E94860620E030E010
:102F5000A90160E089E295E00E949C06782E8093AA
:102F6000330581E0781649F00E944024601B710B04
:102F7000613D774058F381E046C02AEA31E040E005
:102F800050E068E089E295E00E949C0682FF03C061
:102F90007092340510C044E0742E0E944B0680935A
:102FA00033057A947110F9CF8A3A19F0E0922E0520
:102FB0005DC0E092340580913405823021F0412CCF
:102FC000512C320105C0412C512C612C30E4732E60
:102FD00020E030E0A90167E389E295E00E949C06C9
:102FE000A301920169E289E295E00E949C06809328
:102FF0003305882359F00E944024601B710B613D0A
:10300000774030F388E080932E0530C080913405FE
:103010008230D1F420E030E0A9016AE389E295E052
:103020000E949C06882319F030922E051FC00E9432
:103030004B06807C803C11F4F09234050E944B06D4
:103040000E944B060E944B0689E295E00E943906D9
:10305000809227051092280581E00E94331488236E
:1030600051F080915805882369F012CF89E295E0EC
:103070000E9439060DCF80E00E943314882309F4A2
:1030800007CFEFCF80914C05803109F582E0809326
:10309000580510926A0510926B0510926C051092FB
:1030A0006D0580914D0590914E05A0E0B0E025E0C2
:1030B000880F991FAA1FBB1F2A95D1F78093660519
:1030C00090936705A0936805B09369051EC0803290
:1030D00009F0DECEF092580540914F055091500511
:1030E000609151057091520540936A0550936B05AC
:1030F00060936C0570936D0526E635E085E395E0F9
:103100000E948A20882309F4C3CE85E395E090933A
:103110006F0580936E0581E08093570510925905E5
:1031200010925A0510925B0510925C0510925D0595
:1031300010925E0510925F05109260051092610575
:103140001092620510926305109264051092650555
:103150008EA366E4CE01DF91CF911F910F91FF9076
:10316000EF90DF90CF90BF90AF909F908F907F9027
:103170006F905F904F903F902F900C94BF189F924C
:10318000AF92BF92CF92DF92EF92FF920F931F9375
:10319000CF93DF93CDB7DEB76B970FB6F894DEBF52
:1031A0000FBECDBF8C01962EFC0186A1811103C0FC
:1031B000C8010E94181765E070E080E090E00E946E
:1031C0000624C8010E94FA0965E070E080E090E002
:1031D0000E940624F801A2A0B3A0C5010E94B1106C
:1031E0006B017C01F6E49F1224C08FEFC81AD80A45
:1031F000E80AF80A6C2DC5010E945F359927F7FC93
:103200009A958F2D7E2D6D2DC50101960E945F35FB
:10321000B701992777FD9095892FC50102960E94E5
:103220005F356F2D772788279927C50103960E9460
:103230005F35A7019601692DC8010E94C51565E09B
:1032400070E080E090E00E940624B801655E7F4F48
:1032500043E1CE0101960E942A138B819C81F801E3
:10326000938382838D819E81AF81B885848395838A
:10327000A683B78389859A85AB85BC85808791872E
:10328000A287B3878DE0FE013D96D8011C96019080
:103290000D928A95E1F78A8D9B8DF801928F818F2F
:1032A00065E070E080E090E00E9406246B960FB627
:1032B000F894DEBF0FBECDBFDF91CF911F910F916C
:1032C000FF90EF90DF90CF90BF90AF909F900895C8
:1032D000DF92EF92FF920F931F93CF93DF938C01B6
:1032E0007B01D22EEC012D96442329F064E973E092
:1032F000CE010E94F11CB701CE010E94F11CDD201D
:1033000029F061E973E0CE010E94F11CB701F801D8
:1033100080819181DF91CF911F910F91FF90EF906C
:10332000DF900C94F11C2F923F924F925F926F921C
:103330007F928F929F92AF92BF92CF92DF92EF9245
:10334000FF920F931F93CF93DF93CDB7DEB72E97E6
:103350000FB6F894DEBF0FBECDBF1C017B015A0132
:1033600069011E870D878C010A5F1F4F6BE773E0B1
:10337000C8010E94F11C6D857E85C8010E94151D43
:1033800068E773E0C8010E94F11CE114F10431F018
:10339000A50160E070E0C7010E94DD30C114D104D6
:1033A00029F442E050E05C874B8702C01C861B86F4
:1033B000A101435F5F4F5A83498364E773E0CA0109
:1033C0000E94F11C0E9440246B837C838D839E832A
:1033D000812C912C00E010E00E944024F101A08D8E
:1033E000B18D2B013C012B813C814D815E81421AC4
:1033F000530A640A750A28EE33E00E94852E4616A9
:1034000057066806790620F40E94DA0B811126C05F
:1034100080E07CC0D1018D919C91DC01ED91FC910B
:103420000284F385E02D1995582E682F89819A81A1
:103430000E94EA1CC114D104F9F4ED85FE85E80D63
:10344000F91D8081581609F456C091E080E0AD85E1
:10345000BE853C91531290E0892E982EF101808117
:103460009181DC01ED91FC910084F185E02D1995AD
:10347000181619067CF2B0CF6B847C846114710439
:1034800029F0A30141305105E9F0D7CFF601E00F53
:10349000F11F808158120DC00F5F1F4FF601E00F22
:1034A000F11F91E080E03081311190E09B878C87A3
:1034B000C4CF91E080E0D6013C91531290E0092FF7
:1034C000182FBBCFE114F10409F4B7CFBDE05B16B0
:1034D00069F0E2E0AE16B1044CF0D7015C92B1E0C5
:1034E000AB1AB108F70131967F01A7CF42E050E057
:1034F0005C874B87A2CF5FEF851A950AED85FE8525
:10350000E80DF91D80818111A9CF81E02E960FB6BB
:10351000F894DEBF0FBECDBFDF91CF911F910F9109
:10352000FF90EF90DF90CF90BF90AF909F908F90E3
:103530007F906F905F904F903F902F9008958F9263
:103540009F92AF92BF92CF92DF92EF92FF927B0158
:103550000E9440244B015C0128EE33E0D7010E9419
:10356000852E6B017C010E944024DC01CB0188196F
:103570009909AA09BB098C159D05AE05BF0528F45C
:103580000E94DA0B8111EFCF01C081E0FF90EF9034
:10359000DF90CF90BF90AF909F908F900895CF9283
:1035A000DF92EF92FF920F931F93CF93DF936C0103
:1035B0007A018B01C0E0D0E0CE15DF0589F0D8019B
:1035C0006D918D01D601ED91FC910190F081E02D7E
:1035D000C6011995892B11F47E0102C02196ECCF0A
:1035E000C701DF91CF911F910F91FF90EF90DF9076
:1035F000CF900895FC01218D328D838D948DA9018A
:10360000481B590BCA01917008952091671630919B
:1036100068168091691690916A16281B390B3170D3
:1036200081E0232B09F480E008952091B70A3091BE
:10363000B80A8091B90A9091BA0A281B390B3170E7
:1036400081E0232B09F480E0089520916F113091DF
:1036500070118091711190917211281B390B31708A
:1036600081E0232B09F480E00895209181063091B8
:1036700082068091830690918406281B390B317055
:1036800081E0232B09F480E00895FC01A089B18931
:103690008C91A689B78982FD13C02C91818D928D62
:1036A00001969170438D548D8417950751F0A18D2B
:1036B000B28DAE0FBF1F91962C93928F818F08957C
:1036C0008C9108954FB7F894FC01258D368D878D28
:1036D00090A14FBF2817390718F081509E4F01C0A5
:1036E0000197821B930B0895FC01218D328D838DF0
:1036F000948D2817390779F0A38DB48DAE0FBF1FB5
:1037000091968C91238D348D2F5F3F4F3170348F84
:10371000238F90E008958FEF9FEF0895FC01218D96
:10372000328D838D948D2817390739F0838D948DD0
:10373000E80FF91F81A190E008958FEF9FEF0895A2
:10374000FC01A78DB0A1A80FB91FAF5DBD4F2C9193
:10375000878D90A10196917090A3878FA689B789D4
:103760002C93A089B1898C9180648C93258D368DA2
:10377000878D90A12817390731F40288F389E02D4D
:1037800080818F7D80830895FF920F931F93CF9345
:10379000DF93EC0181E0888F2D8D3E8D8F8D98A178
:1037A0002817390729F4E889F989808185FD25C022
:1037B000F62E0D8D1E8D0F5F1F4F11708F8D98A1EE
:1037C0000817190761F40FB607FCF8CFE889F989E3
:1037D000808185FFF3CFCE010E94A01BEFCFED8D3E
:1037E000FE8DEC0FFD1FEF5DFD4FF0821E8F0D8FE4
:1037F000EA89FB898081806207C0EE89FF89608346
:10380000E889F98980818064808381E090E0DF919C
:10381000CF911F910F91FF900895CF93DF93EC010B
:10382000888D8823C9F0EA89FB89808185FD05C0E0
:10383000A889B9898C9186FD0FC00FB607FCF5CF1A
:10384000808185FFF2CFA889B9898C9185FFEDCF62
:10385000CE010E94A01BE7CFDF91CF91089580E0B9
:1038600090E0892B21F00E94351B811119C080E066
:1038700090E0892B21F00E94251B811114C080E06B
:1038800090E0892B21F00E94151B81110FC080E070
:1038900090E0892B81F00E94051B81110AC00895D8
:1038A0000E940000E4CF0E940000E9CF0E940000C7
:1038B000EECF0C94000008950E94B630CF93DF93B2
:1038C0001F92CDB7DEB7698341E050E0BE016F5F64
:1038D0007F4F0E94FD070F90DF91CF910895EF92E7
:1038E000FF920F931F93CF93DF93EC017B018A012B
:1038F00088819981009729F02A813B812417350717
:10390000F8F4B8016F5F7F4F0E94CD2F009759F0F8
:10391000998388831B830A832C813D81232B81F427
:10392000FC0110820DC088819981009711F00E94DE
:10393000352F198218821D821C821B821A8207C0B1
:103940001D830C83B701888199810E94EF30CE01DD
:10395000DF91CF911F910F91FF90EF900895CF933A
:10396000DF93EC016115710559F0FB010190002016
:10397000E9F73197AF01461B570B0E946F1C0CC033
:1039800088819981009711F00E94352F1982188241
:103990001D821C821B821A82CE01DF91CF91089575
:1039A000FC01808191810C94352FFC0111821082E1
:1039B00013821282158214826115710551F0FB0188
:1039C00001900020E9F73197AF01461B570B0C948B
:1039D0006F1C0895DC01ED91FC910190F081E02DC8
:1039E0001994EF92FF920F931F93CF93DF938C0163
:1039F0007B01C0E0D0E0F701EC0FFD1F649166236E
:103A000061F0D801ED91FC910190F081E02DC801A9
:103A10001995892B11F02196EECFCE01DF91CF9130
:103A20001F910F91FF90EF9008956115710579F046
:103A3000FB0101900020E9F73197AF01461B570BBE
:103A4000DC01ED91FC910280F381E02D199480E07E
:103A500090E008954F925F926F927F92EF92FF9263
:103A60000F931F93CF93DF93CDB7DEB7A1970FB618
:103A7000F894DEBF0FBECDBF7C01FA01CB0119A2C5
:103A8000223008F42AE08E010F5D1F4F422E512C88
:103A9000612C712CBF01A30192010E945B2EF901E0
:103AA000CA01015011096A3014F4605D01C0695CFB
:103AB000D8016C93232B242B252B61F7B801C70168
:103AC0000E94151DA1960FB6F894DEBF0FBECDBFA4
:103AD000DF91CF911F910F91FF90EF907F906F90AA
:103AE0005F904F9008950F931F93CF93DF93EC0156
:103AF000E881F981DB0114964D915C9115976D91E8
:103B00007C910280F381E02D19958C0165EF72E0C4
:103B1000CE010E94151D800F911FDF91CF911F9143
:103B20000F9108951F920F920FB60F9211240BB6AA
:103B30000F922F933F934F935F936F937F938F9346
:103B40009F93AF93BF93EF93FF938EE496E10E9410
:103B5000A01BFF91EF91BF91AF919F918F917F91AA
:103B60006F915F914F913F912F910F900BBE0F90EE
:103B70000FBE0F901F9018951F920F920FB60F92C5
:103B800011240BB60F922F933F934F935F936F9334
:103B90007F938F939F93AF93BF93EF93FF938EE4A5
:103BA00096E10E94451BFF91EF91BF91AF919F91CC
:103BB0008F917F916F915F914F913F912F910F90D6
:103BC0000BBE0F900FBE0F901F9018951F920F9273
:103BD0000FB60F9211240BB60F922F933F934F9372
:103BE0005F936F937F938F939F93AF93BF93EF9365
:103BF000FF938EE99AE00E94A01BFF91EF91BF9185
:103C0000AF919F918F917F916F915F914F913F9174
:103C10002F910F900BBE0F900FBE0F901F90189515
:103C20001F920F920FB60F9211240BB60F922F9383
:103C30003F934F935F936F937F938F939F93AF9334
:103C4000BF93EF93FF938EE99AE00E94451BFF918B
:103C5000EF91BF91AF919F918F917F916F915F9104
:103C60004F913F912F910F900BBE0F900FBE0F9071
:103C70001F9018951F920F920FB60F9211240BB63A
:103C80000F922F933F934F935F936F937F938F93F5
:103C90009F93AF93BF93EF93FF9386E591E10E94CB
:103CA000A01BFF91EF91BF91AF919F918F917F9159
:103CB0006F915F914F913F912F910F900BBE0F909D
:103CC0000FBE0F901F9018951F920F920FB60F9274
:103CD00011240BB60F922F933F934F935F936F93E3
:103CE0007F938F939F93AF93BF93EF93FF9386E55B
:103CF00091E10E94451BFF91EF91BF91AF919F9180
:103D00008F917F916F915F914F913F912F910F9084
:103D10000BBE0F900FBE0F901F9018951F920F9221
:103D20000FB60F9211240BB60F922F933F934F9320
:103D30005F936F937F938F939F93AF93BF93EF9313
:103D4000FF9388E696E00E94A01BFF91EF91BF9140
:103D5000AF919F918F917F916F915F914F913F9123
:103D60002F910F900BBE0F900FBE0F901F901895C4
:103D70001F920F920FB60F9211240BB60F922F9332
:103D80003F934F935F936F937F938F939F93AF93E3
:103D9000BF93EF93FF9388E696E00E94451BFF9147
:103DA000EF91BF91AF919F918F917F916F915F91B3
:103DB0004F913F912F910F900BBE0F900FBE0F9020
:103DC0001F9018958091B91B8823A9F1409100029A
:103DD00050910102609102027091030225E233E0EA
:103DE00080912505909126050E949207811102C0BD
:103DF00080E008954091BA1B5091BB1B6091BC1BA1
:103E00007091BD1B411551056105710591F025E2C9
:103E100033E080912505909126050E949207882322
:103E200039F31092BA1B1092BB1B1092BC1B10925C
:103E3000BD1B1092B91B81E008958F929F92AF92A3
:103E4000BF92EF92FF920F931F93CF934B015C01B0
:103E5000C42F8091000290910102A0910202B091C2
:103E6000030288159905AA05BB0501F10E94E21E0F
:103E7000811102C080E020C085E2E82E83E0F82EA8
:103E800000E012E020E030E0B501A40180912505BA
:103E9000909126050E94FE06882361F3809200021D
:103EA00090920102A0920202B09203028091B91B8B
:103EB000C82BC093B91B81E0CF911F910F91FF9048
:103EC000EF90BF90AF909F908F9008954F925F9228
:103ED0006F927F928F929F92AF92BF92CF92DF921A
:103EE000EF92FF920F931F93CF93DF93EC016A0140
:103EF0007B0128013901423051056105710510F43B
:103F000080E073C089859A85AB85BC850196A11D2B
:103F1000B11D84179507A607B70790F38B889C8877
:103F2000AD88BE888F89803129F4BB27AF2D9E2DA7
:103F30008D2D09C0DB01CA0147E0B695A79597957D
:103F400087954A95D1F7880E991EAA1EBB1E8091AF
:103F5000000290910102A0910202B0910302881622
:103F60009906AA06BB0679F48F898031A1F4DD2475
:103F7000EE24FF24C601880F991FFC01EB5DFC4F66
:103F80005182408219C040E0C501B4010E941D1F4A
:103F90008111EACFB5CFE894C7F8DD24EE24FF24E1
:103FA000C601880F991F880F991FFC01EB5DFC4F1C
:103FB00040825182628273828091B91B81608093BA
:103FC000B91B8A89823080F08D819E81AF81B8854E
:103FD000880E991EAA1EBB1E8092BA1B9092BB1B14
:103FE000A092BC1BB092BD1B81E0DF91CF911F91CD
:103FF0000F91FF90EF90DF90CF90BF90AF909F9088
:104000008F907F906F905F904F9008958F929F92C6
:10401000AF92BF92CF92DF92EF92FF920F931F93D6
:10402000CF93DF93FC0181859285A385B4850196AA
:10403000A11DB11D84179507A607B70710F480E0EE
:104040005CC083899489A589B689C789C03129F460
:10405000852E962EA72EBB2409C04A015B01C7E01E
:10406000B694A79497948794CA95D1F7E9016A0109
:104070007B018F01BC01CD01680D791D8A1D9B1D3F
:104080008090000290900102A0900202B090030282
:10409000681579058A059B0599F4F80187898031AF
:1040A000A9F4B701A601552766277727440F551FA6
:1040B000FA01EB5DFC4F80819181A0E0B0E018C077
:1040C00040E00E941D1F8111E8CFB9CFB701A601C2
:1040D0004F77552766277727440F551F440F551FE5
:1040E000FA01EB5DFC4F80819181A281B381BF70A9
:1040F00088839983AA83BB8381E0DF91CF911F914D
:104100000F91FF90EF90DF90CF90BF90AF909F9076
:104110008F9008954F925F926F927F92AF92BF926D
:10412000CF92DF92EF92FF920F931F93CF93DF9383
:1041300000D01F92CDB7DEB78C0149835A836B83C1
:104140007C835901C12CD12C7601412C82E0582E60
:10415000612C712C49815A816B817C819E012F5F7A
:104160003F4FC8010E940620882351F1D301C201AC
:10417000F801058404C0880F991FAA1FBB1F0A9469
:10418000D2F7C80ED91EEA1EFB1E49815A816B81E7
:104190007C818789803129F088EF9FEFAFEFBFE006
:1041A00004C088EF9FEFA0E0B0E0481759076A0706
:1041B0007B0780F2F501C082D182E282F38281E046
:1041C0000F900F900F900F90DF91CF911F910F9153
:1041D000FF90EF90DF90CF90BF90AF907F906F9067
:1041E0005F904F9008954F925F926F927F92AF923F
:1041F000BF92CF92DF92EF92FF920F931F93CF93D4
:10420000DF93CDB7DEB72B970FB6F894DEBF0FBEA6
:10421000CDBF7C01CE0101966C01FC0190E28BE0E8
:104220008C0D91938E13FDCFDA0130E047E09D9124
:10423000992339F19E3219F0E8E9F3E00AC04A30D7
:1042400009F472C138E04AE0F2CF3196891709F4D7
:104250006BC184918111F9CF431708F465C18FEDCB
:10426000890F8E3508F060C181E0830FF601E30FFE
:10427000F11D3FE9390F3A3108F490529083382FFD
:10428000D6CF8981803209F44FC1B22E8B01DB0178
:104290005B968D919C915C97F701948F838F169616
:1042A0001D921D921D921C921997FB011286138676
:1042B00014861586712CF80182859385A485B585B1
:1042C000438954896589768984179507A607B707B6
:1042D00008F061C025E0B695A795979587952A9532
:1042E000D1F7F82FFF706F2ED80115968C91823080
:1042F00008F41AC1C8010E94410A97FD15C1F801CE
:1043000082859385A485B5854F96A11DB11D8287B1
:104310009387A487B587F0E26F9EC0011124BC018A
:104320006B5D7C4F6115710509F4FEC0DB012C91BA
:10433000222319F0253EC1F427C071100EC0F701E9
:10434000628A4091000250910102609102027091D4
:10435000030246875787608B718BFC01EB5DFC4F36
:104360008081811113C015C04BE050E0C6010E944E
:10437000C730892B09F09FCF8B2D8073803309F4D0
:10438000D3C04B2D662DCCC07720C9F2772473940F
:1043900092CF772473948B2D8271823109F0C4C03F
:1043A0007720D1F0D7011E966D917D918D919C91D2
:1043B000519741E00E941D1F882309F4B5C0F70101
:1043C0006289F0E26F9FB00111246B5D7C4F611533
:1043D000710509F079C0A8C0D80115968C9182307A
:1043E00009F4A2C0C8010E943005882309F49CC0CA
:1043F000D8015B96ED91FC915C9716964D905D907F
:104400006D907C901997B2E04B1A510861087108C1
:10441000058404C0440C551C661C771C0A94D2F712
:1044200086859785A089B189480E591E6A1E7B1E14
:10443000A480E1E04E1A510861087108AA2009F130
:104440000E94E21E882309F46FC0E5E2F3E01192B6
:1044500025E0E532F207D9F7D301C2018A0D911D9B
:10446000A11DB11D8093000290930102A09302024E
:10447000B09303028091B91B81608093B91BAA9409
:10448000DDCFD8015B96ED91FC915C9780E092E0E6
:10449000A0E0B0E0058404C0880F991FAA1FBB1FCD
:1044A0000A94D2F7F8014389548965897689840F83
:1044B000951FA61FB71F838B948BA58BB68BD70137
:1044C00052961C9265E273E080E2FB0111928A959C
:1044D000E9F78BE0F601DB0101900D928A95E1F797
:1044E00081E298E2DB0151969C938E93509720E0F5
:1044F00038E01F963C932E931E9753969C938E9371
:10450000529759969C938E93589757963C932E9317
:1045100056970E94E21E882339F04B2DF7016289DD
:10452000C7010E941C0401C080E02B960FB6F894CE
:10453000DEBF0FBECDBFDF91CF911F910F91FF90D6
:10454000EF90DF90CF90BF90AF907F906F905F9093
:104550004F9008953FB7F8948091C71B9091C81B66
:10456000A091C91BB091CA1B26B5A89B05C02F3FBF
:1045700019F00196A11DB11D3FBFBA2FA92F982F89
:104580008827820F911DA11DB11DBC01CD0142E004
:10459000660F771F881F991F4A95D1F708951F92BC
:1045A0000F920FB60F9211240BB60F922F933F93D9
:1045B0004F935F936F937F938F939F93AF93BF932B
:1045C000EF93FF93E091C01BF091C11B309709F46A
:1045D00051C0968DA685B785858591FF04C09C91B5
:1045E000892329F447C09C91892309F043C0A389FA
:1045F000B4899C918589809589238C938689978934
:104600000197F1F7608D718DA685B785558538E0E6
:1046100020E0CB010197F1F7822F90E095958795E7
:10462000282F4C91452309F02068315091F7868D51
:1046300081FD20958091BF1B90E001968F73992793
:104640003091BE1B381749F0A091BF1BB0E0A553B5
:10465000B44E2C938093BF1B03C0868D8160868FE0
:10466000828D938D0197F1F7A389B4899C918589F7
:10467000892B8C93FF91EF91BF91AF919F918F9177
:104680007F916F915F914F913F912F910F900BBE52
:104690000F900FBE0F901F901895362F90E0FC01E1
:1046A000E859FB4F4491FC01EE5DFB4F2491FC0166
:1046B000E452FC4F9491992309F46BC0442309F40C
:1046C00055C050E0FA013197E231F10508F04EC0D3
:1046D0008827EE58FF4F8F4F0C947D2E80918000DD
:1046E0008F7707C0809180008F7D03C0809180000C
:1046F000877F809380003AC084B58F7702C084B5ED
:104700008F7D84BD33C08091B0008F7703C08091CE
:10471000B0008F7D8093B00029C0809190008F778A
:1047200007C0809190008F7D03C080919000877FAB
:10473000809390001BC08091A0008F7707C080916C
:10474000A0008F7D03C08091A000877F8093A00090
:104750000DC0809120018F7707C0809120018F7D4F
:1047600003C080912001877F80932001E92FF0E032
:10477000EE0FFF1FEE53FC4FA591B4918FB7F89445
:10478000EC91311103C020952E2301C02E2B2C93C8
:104790008FBF0895CF93DF9390E0FC01EE5DFB4F58
:1047A0002491FC01E452FC4F8491882361F190E054
:1047B000880F991FFC01E855FC4FC591D491FC016D
:1047C000EE53FC4FA591B491611109C09FB7F894C5
:1047D0008881209582238883EC912E230BC0623040
:1047E00061F49FB7F8943881822F80958323888362
:1047F000EC912E2B2C939FBF06C08FB7F894E881C5
:104800002E2B28838FBFDF91CF9108958F929F9297
:10481000AF92BF92CF92DF92EF92FF926B017C0139
:104820000E94AA224B015C01C114D104E104F104ED
:10483000F1F00E94AA22DC01CB0188199909AA098A
:10484000BB09883E9340A105B10570F321E0C21A6F
:10485000D108E108F10888EE880E83E0981EA11CBB
:10486000B11CC114D104E104F10419F7DDCFFF90AC
:10487000EF90DF90CF90BF90AF909F908F90089572
:104880002FB7F8946091C31B7091C41B8091C51B16
:104890009091C61B2FBF08951F920F920FB60F92D3
:1048A00011242F933F938F939F93AF93BF93809146
:1048B000C31B9091C41BA091C51BB091C61B309126
:1048C000C21B23E0230F2D3720F40196A11DB11D3B
:1048D00005C026E8230F0296A11DB11D2093C21B1F
:1048E0008093C31B9093C41BA093C51BB093C61B9E
:1048F0008091C71B9091C81BA091C91BB091CA1B86
:104900000196A11DB11D8093C71B9093C81BA09356
:10491000C91BB093CA1BBF91AF919F918F913F91DB
:104920002F910F900FBE0F901F901895CF93DF938C
:10493000CDB7DEB7E6970FB6F894DEBF0FBECDBF9A
:10494000789484B5826084BD84B5816084BD85B56A
:10495000826085BD85B5816085BD80916E00816076
:1049600080936E001092810080918100826080931C
:10497000810080918100816080938100809180001E
:104980008160809380008091B10084608093B10049
:104990008091B00081608093B0008091910082602E
:1049A000809391008091910081608093910080912B
:1049B00090008160809390008091A100826080933C
:1049C000A1008091A10081608093A1008091A0004E
:1049D00081608093A00080912101826080932101F9
:1049E000809121018160809321018091200181606B
:1049F0008093200180917A00846080937A00809176
:104A00007A00826080937A0080917A00816080933E
:104A10007A0080917A00806880937A001092C100B9
:104A200099E288E10FB6F894A895809360000FBED4
:104A3000909360001092B71B1092B61B60E08DE05F
:104A40000E94CA2361E080E30E944D2361E08EE270
:104A50000E944D2386E090E00E945735682F809396
:104A6000AD1B85E090E06EAB0E9457358093AC1B88
:104A70006EA9681740F485E090E00E94F3108091E1
:104A8000AD1B8093AC1B8091AC1B833178F062E14D
:104A900086E090E00E94F31062E185E090E00E94E1
:104AA000F31082E18093AD1B8093AC1B6091AC1B33
:104AB000662361F0615085E090E00E94F31060E0B1
:104AC00080E30E944D230E94F5100EC06091AD1B43
:104AD00085E090E00E94F3108091AD1B8093AC1BA9
:104AE00061E080E30E944D23A8958DE79BE10E9441
:104AF0001817A895EFEBFEE080E381932FE0ED3CE3
:104B0000F207D9F71092221110922111EDECFFE07B
:104B100080E3819391E1E132F907D9F710922411F2
:104B20001092231140E05BE460E070E08091251179
:104B3000909126110E942E116AE070E080E090E0D2
:104B40000E94062484E190E09093421180934111E9
:104B50008EE190E090934411809343110E94F811EC
:104B600080914C11811139C080914D1190914E115D
:104B7000019699F181E080934C1180914B11811144
:104B80001DC021E041E06CE971E08DE291E10E94FD
:104B9000681903EF12E020E030E040E050E060E010
:104BA00070E08DE291E10E94931981110AC00E9488
:104BB000DA0B882349F083E090E008C08AE090E0B7
:104BC00005C080E090E002C084E090E010924C11BB
:104BD000892B19F480E00E949511A8956AEF70E086
:104BE00080E090E00E940624E0914816F09149167A
:104BF000309709F4A9C0138E128E118E108E178A69
:104C0000168A8DE991E0958F848F848596EF980FB1
:104C1000943048F02EEC280F243028F022EC280F96
:104C2000283008F063C02DEB30E0378B268B2BE962
:104C300031E0318F208F2CE231E0338F228F94309E
:104C400060F02EEC280F243040F042EC480F483042
:104C500008F424C520E030E023C528E630E0A8E6CB
:104C6000B0E04C91943018F08E53883010F081E011
:104C700001C084E0842BD9018C93848596EF980F32
:104C8000943058F02EEC280F243038F022EC280F06
:104C9000283030F020E030E005C02BE630E002C0E4
:104CA0002DE630E0348B238B943010F49AEF0BC058
:104CB000823381F0833381F0843381F092EC980F5A
:104CC000983070F492EC980F81E001C0880F9A95AB
:104CD000EAF707C088E005C084E003C082E001C0B5
:104CE00081E0858B848D958D0197F1F7828D938D71
:104CF000892BA1F14091C01B5091C11B4E175F073A
:104D000069F14115510571F0DA0153962D913C91ED
:104D10005497D9019C91DA0155968C9180958923FD
:104D2000D9018C93868D8E7F868F1092BF1B109237
:104D3000BE1BF093C11BE093C01BA389B4899C9157
:104D40008589892B8C930AC040E855E260E070E0C9
:104D500080914A1690914B160E942E116AE070E0E5
:104D600080E090E00E9406246AE070E080E090E03D
:104D70000E9406248AE692E00E9417118CE992E0D4
:104D80000E9417118DEA92E00E94171168EE73E0FD
:104D900080E090E00E940624A89587E795E10E94B4
:104DA000AB0FA895E5E7FBE18191DF01A350B1408E
:104DB0008C93BBE1EB37FB07B9F740E051EE60E0C5
:104DC00070E080916F1A9091701A0E942E1164E128
:104DD00070E080E090E00E94062486E090E09093EE
:104DE000741B8093731B10927C1B10927B1B809111
:104DF0006F1A9091701ADC01ED91FC910084F1859D
:104E0000E02D19951816190664F480916F1A909187
:104E1000701ADC01ED91FC910284F385E02D199567
:104E2000E6CF0E947A158823E1F386E090E0909324
:104E3000741B8093731B10927C1B10927B1BA89594
:104E400080E693EEA6E1B0E08093B21B9093B31B93
:104E5000A093B41BB093B51B0E9440246093AE1B7B
:104E60007093AF1B8093B01B9093B11B81E090E0D7
:104E70009093B71B8093B61B90E3F92E2DE0C22EC2
:104E8000D12C30E8A32EB12CA8958091B61B90911F
:104E9000B71B8130910521F0029709F471C06DC0F4
:104EA0000E9440240091AE1B1091AF1B2091B01BBB
:104EB0003091B11BDC01CB01801B910BA20BB30B1A
:104EC0000091B21B1091B31B2091B41B3091B51B04
:104ED00080179107A207B30738F082E090E0909323
:104EE000B71B8093B61B4CC00E947A158823B1F182
:104EF00066EC72E0CE0101960E94D51CBE016F5F88
:104F00007F4F8091711A9091721A0E946215CE01A2
:104F100001960E94D01C0091711A1091721AC8015A
:104F20000E944B164091731B5091741B46505109BF
:104F300063E77AE1C8010E948D096AE0C8010E9416
:104F40002A03C8010E94571686E090E09093741BD4
:104F50008093731B10927C1B10927B1B80917715A2
:104F600090917815DC01ED91FC910084F185E02DA4
:104F70001995181619060CF441C30E942F1C84CFF2
:104F80008DE79BE10E94FA090E94F811EFEBFEE029
:104F9000F192BFE0ED3CFB07D9F71092221110927D
:104FA0002111EDECFFE0F19221E1E132F207D9F7B6
:104FB00010922411109223110091291110912A119D
:104FC00080917B00877F80937B0080E480937C00CE
:104FD00080917A00806480937A0080917A0086FDC7
:104FE000FCCF609178008091790070E0782B072EDB
:104FF000000C880B990B0E945B3420E030E040EA03
:1050000050E40E94963420E030E040E85AE30E94E9
:105010009634D8016D937D938D939C9313971BA227
:105020001AA21DA21CA21FA21EA28E010F5F1F4F5B
:1050300022E044E00E940531BC01CE0182960E942C
:10504000AF1C6EA17FA14AA15BA180E090E02091FE
:105050002311309124118617970718F44115510533
:1050600029F410922203E2E2F3E003C0FA01E80F10
:10507000F91FD901A353B04FE081EC932F5F3F4F4D
:105080003093241120932311019684309105F9F671
:10509000CE0182960E94D01C80912B1190912C11F0
:1050A000FC017B968196209123113091241141912E
:1050B000D901A353B04F4C932F5F3F4F309324112E
:1050C00020932311E817F90771F700912711109128
:1050D0002811C8010E94AB0F4801B5ED8B0E911C41
:1050E000F4011182108280E090E0D4012D913C9176
:1050F00024313105ACF5A895C8010E94E20F009754
:10510000D9F3D80114962C911497243271F715967F
:105110002C911597273449F716962C911697203520
:1051200021F717962C9117972235F9F618962C919E
:1051300018972D34D1F619962C9119972334A9F686
:10514000F401208131812F5F3F4F318320835696B8
:105150002C91213451F68038910514F480E890E0C8
:1051600020912711309128112C5F3F4FF901AF0199
:10517000421B530B4817590784F440912311509157
:1051800024116191DA01A353B04F6C934F5F5F4FCD
:105190005093241140932311EACF8FEB9EE00E949D
:1051A000E30B61E08EE20E94CA2360E08EE20E947F
:1051B0004D23A89540E052EC61E070E080918F0AA9
:1051C0009091900A0E942E1162E370E080E090E0DE
:1051D0000E940624A8950E9440242B013C010E94B5
:1051E0004024DC01CB0184199509A609B709803C4C
:1051F000944DA140B10578F4A89562E582E40E943F
:10520000C312882361F3A8956EE48EE40E94C31252
:1052100000E010E001C0FFCFE0918B0AF0918C0A12
:10522000E00FF11F638D80918F0A9091900A0E9488
:10523000EA1C0F5F1F4F0630110571F76EE48EE414
:105240000E94C31264EB71E080918F0A9091900AE2
:105250000E94F11C66E480918B0A90918C0A0E9456
:10526000AC1611E080908B0A90908C0AC4010E94C9
:105270009A16882309F464C0C4010E944C0B082FBD
:105280008091950A882309F444C08091910A9091F5
:10529000920ADC01ED91FC910084F185E02D1995D5
:1052A000892B71F38091910A9091920ADC01ED9122
:1052B000FC910284F385E02D19958F3431F710921B
:1052C000950A8091910A9091920ADC01ED91FC91EE
:1052D0000084F185E02D1995181619060CF0B1C15E
:1052E0008091910A9091920ADC01ED91FC910284E7
:1052F000F385E02D1995E5CF8091910A9091920A5E
:10530000DC01ED91FC910284F385E02D1995863442
:10531000A1F08091910A9091920ADC01ED91FC91AB
:105320000084F185E02D1995892B31F78091930A3E
:105330009091940A892B09F084C11093950AA0CF0B
:1053400062EA71E080918F0A9091900A0E94F11CAC
:1053500064E670E080E090E00E94062480918F0A6D
:105360009091900ADC01ED91FC910084F185E02D93
:1053700019951816190664F480918F0A9091900A75
:10538000DC01ED91FC910284F385E02D1995E6CFC7
:105390006AEC72E0CE0101960E94D51CBE016F5FDF
:1053A0007F4FCE018C960E942616CE0101960E9458
:1053B000D01CA8950E9440242B013C010E9440244F
:1053C000DC01CB0184199509A609B70980369A4EEC
:1053D000A105B10510F580918F0A9091900ADC012A
:1053E000ED91FC910084F185E02D199518161906B0
:1053F00094F480918F0A9091900ADC01ED91FC91D8
:105400000284F385E02D1995682FCE018C960E94B9
:10541000800B811103C0A895D1CFFFCFA89569E477
:1054200080918B0A90918C0A0E94BF1880918F0AFC
:105430009091900ADC01ED91FC910190F081E02DBA
:1054400064E519950E9440242B013C0168ED72E04F
:10545000CE0101960E94D51CBE016F5F7F4FCE0129
:1054600082960E942616CE0101960E94D01CA89515
:1054700000E010E08CE0882E912C0E944024DC019A
:10548000CB0184199509A609B70980369A4EA10562
:10549000B10588F580918F0A9091900ADC01ED9119
:1054A000FC910084F185E02D1995181619062CF74A
:1054B00080918F0A9091900ADC01ED91FC91028419
:1054C000F385E02D1995282FB1E08B1A9108E1E0C2
:1054D000F0E0EC0FFD1FE00FF11F8083C801019683
:1054E000B6010E94472E8C01622FCE0182960E9447
:1054F000800B882309F164E670E080E090E00E9470
:105500000624CE0182960E94D01CCE018C960E9469
:10551000D01CA89569E480918B0A90918C0A0E9416
:10552000AC1680918D0A90918E0AFC01E25FFE4FCD
:105530009C012E593D4F11C097FE0DC0E1E0F0E0F7
:10554000EC0FFD1FE00FF11F608180918B0A90919D
:105550008C0A0E94EA1CA89590CFF192E217F307FB
:10556000E1F7FC01EC59FD4F1182108200918D0A88
:1055700010918E0AF801EC59FD4F8081918184359C
:10558000914048F480908B0A90908C0AC4010E944C
:105590009A16811116C0C8010E94E30B60E080E3F7
:1055A0000E944D238091AC1B811125C098E088E1B9
:1055B0000FB6F894A895809360000FBE909360009A
:1055C00019C0C4010E944C0B20918D0A30918E0AA3
:1055D000D901AC59BD4F4D915C911197240F351FE6
:1055E000F901E25FFE4F80834F5F5F4F4D935C9305
:1055F000A895BCCFFFCF0E94F510BFCC87E795E1FF
:105600000E94E20F4C01181619060CF0A7CC00916D
:10561000791510917A15C8010E944B16D801ED91A9
:10562000FC910280F381E02DA4016BE775E1C801D4
:1056300019956AE0C8010E94EA1CC8010E94571629
:105640008DCC8091910A9091920ADC01ED91FC91B0
:105650000190F081E02D602F19958091930A90912F
:10566000940A0197B1F4B092940AA092930A80919F
:10567000910A9091920ADC01ED91FC910480F581F0
:10568000E02D19958038910594F31093950AA8950B
:10569000E9CD9093940A8093930AF9CF28E630E0FD
:1056A000483008F4DCCAA0E0B0E0DBCA86E99AE042
:1056B0000C94D01C8F929F92AF92BF92CF92DF92A8
:1056C000EF92FF920F931F93CF93DF931092511697
:1056D0001092501688EEC82E83E0D82EE12CF12CC3
:1056E000C0925216D0925316E0925416F09255166C
:1056F00084E192E090934F1680934E1625E331E0BB
:1057000030935B1620935A1624E331E030935D16F4
:1057100020935C1620E331E030935F1620935E16F1
:1057200021E331E0309361162093601622E331E0EB
:10573000309363162093621626E331E030936516AA
:1057400020936416109268161092671610926A16CB
:105750001092691610926C1610926B1610926E16BB
:1057600010926D162EE9A22E2AE0B22E1092A10AF6
:105770001092A00AC092A20AD092A30AE092A40AB0
:10578000F092A50A90939F0A80939E0A25ED30E03F
:105790003093AB0A2093AA0A24ED30E03093AD0A8F
:1057A0002093AC0A20ED30E03093AF0A2093AE0A8C
:1057B00021ED30E03093B10A2093B00A22ED30E0C1
:1057C0003093B30A2093B20A26ED30E03093B50A45
:1057D0002093B40A1092B80A1092B70A1092BA0A2B
:1057E0001092B90A1092BC0A1092BB0A1092BE0A1B
:1057F0001092BD0A36E5832E31E1932E1092591195
:1058000010925811C0925A11D0925B11E0925C1123
:10581000F0925D1190935711809356112DEC30E06A
:1058200030936311209362112CEC30E030936511BA
:105830002093641128EC30E03093671120936611B7
:1058400029EC30E030936911209368112AEC30E0A4
:1058500030936B1120936A112EEC30E030936D1170
:1058600020936C111092701110926F11109272119E
:10587000109271111092741110927311109276118E
:105880001092751108E616E010926B0610926A06E7
:10589000C0926C06D0926D06E0926E06F0926F0692
:1058A000909369068093680685EC90E09093750666
:1058B0008093740684EC90E090937706809376064C
:1058C00080EC90E0909379068093780681EC90E0EC
:1058D00090937B0680937A0682EC90E090937D060D
:1058E00080937C0686EC90E090937F0680937E0602
:1058F00010928206109281061092840610928306FE
:1059000010928606109285061092880610928706DD
:1059100080E5809327051092280510922E0510929D
:105920002F05109232051092340582E090E0A0E03D
:10593000B0E08093350590933605A0933705B0937A
:10594000380510924C05109256051092550586E2C6
:1059500092E090935405809353051092580561E0AE
:1059600080E30E94CA2360E08EE20E94CA23CDE752
:10597000DBE11092801B10927F1BC092811BD092A2
:10598000821BE092831BF092841B8EE392E0909343
:105990007E1B80937D1B1092971B1092961B10927A
:1059A000891B81E090E0A0E0B0E080939F1B909382
:1059B000A01BA093A11BB093A21B1092A31B8EE46B
:1059C00096E19093701A80936F1AD093721AC093D5
:1059D000711A86E0EAE0F2E0A5E7BBE101900D92E2
:1059E0008A95E1F79092781580927715D0937A1581
:1059F000C09379151092FC151092FB151092491660
:105A0000109248161092670610924716109266067A
:105A10008CEE95E0909365068093640682E795E0AE
:105A20009093EB058093EA0510923A16109239167E
:105A30001092021610920116109200161092FF1585
:105A40001092FE151092FD15109237161092361610
:105A500010923516109238161092041610920316F2
:105A6000109231161092321610923316109234168C
:105A700010922D1610922E1610922F16109230168C
:105A80001092291610922A1610922B1610922C168C
:105A9000109225161092261610922716109228168C
:105AA000109221161092221610922316109224168C
:105AB00010921D1610921E1610921F16109220168C
:105AC0001092091610920A1610920B1610920C16CC
:105AD00010920516109206161092071610920816CC
