:1000000079C20000A8C20000A6C20000A4C200007D
:10001000A2C20000A0C200009EC200009CC200005C
:100020009AC200000C9430250C9430250C94302595
:1000300092C2000090C200008EC200008CC200007C
:100040008AC2000088C2000086C2000084C200008C
:1000500082C2000080C200007EC200000C94C22355
:100060007AC200000C9498230C946E2374C2000092
:1000700072C2000070C200006EC200006CC20000BC
:100080006AC2000068C2000066C2000064C20000CC
:100090000C9444230C941A235EC200000C940C248C
:1000A0005AC2000058C2000056C2000054C20000EC
:1000B00052C2000050C200004EC200004CC20000FC
:1000C0004AC2000048C2000046C200000C94F02260
:1000D0000C94C62240C200000C949C220C94722204
:1000E0003AC2000000407A10F35A00A0724E18097C
:1000F0000010A5D4E80000E87648170000E40B548F
:10010000020000CA9A3B000000E1F505000080965D
:100110009800000040420F000000A086010000008F
:10012000102700000000E803000000006400000049
:1001300000000A00000000000100000000002C7612
:10014000D888DC674F0823DFC1DFAE59E1B1B7962D
:10015000E5E3E453C63AE651997696E8E6C284268A
:10016000EB898C9B62ED407C6FFCEFBC9C9F40F266
:10017000BAA56FA5F490055A2AF75C936B6CF967E2
:100180006DC11BFCE0E40D47FEF520E6B500D0EDA7
:10019000902E0300943577050080841E080000200F
:1001A0004E0A000000C80C333333330F986E1283AD
:1001B0001141EF8D2114893BE65516CFFEE6DB1881
:1001C000D1844B381BF77C1D901DA4BBE424203246
:1001D00084725E228100C9F124ECA1E53D273C3CFC
:1001E00020000D0A0057616974696E6720666F729E
:1001F00020726573706F6E736520000D0A003E3EBD
:1002000020007C3C3E5E2B3D3F2F5B5D3B2C2A2239
:100210005C0000002100240027002A002D0030008F
:10022000330001010000040107010A01000022005F
:10023000250028002B002E003100340002010000B0
:10024000050108010B010505050507050808080853
:10025000020202020A0A080804040404010101015E
:100260000101010103030303030303030407070759
:100270000C0C0C0C0C0C0C0C0202020206060606FE
:10028000060606060B0B0B0B0B0B0B0B01021020CB
:1002900020080810204010204080020102010804BC
:1002A0000201010204081020408080402010080450
:1002B00002018004020180402010080402010804A9
:1002C00002010102040810204080010204081020ED
:1002D000408000000A0B02090C0D0E080703040100
:1002E000000000000000000000000000000000000E
:1002F00000000000000000000000000000001211DB
:1003000010000000000000000000000000000000DD
:10031000000000000000000041542A460D00454E38
:10032000445F5452414E534D49545F46494C450039
:1003300053544152545F5452414E534D49545F46B9
:10034000494C45005D005B6373756D3A005D005B71
:1003500042696E6172792073697A653A0041542B63
:1003600053424452420D0041542B53424449580DCC
:100370000041542D4D5353544D0D0041542B4353C4
:10038000510D0053424449582074696D656F75746E
:10039000210D0A0057616974696E6720666F7220CB
:1003A0004353512072657472792E2E2E0D0A005718
:1003B000616974696E6720666F72205342444958C0
:1003C0002072657472792E2E2E0D0A005342444914
:1003D0005820666174616C210D0A00496E636F6D6F
:1003E000696E67206D657373616765210D0A00533F
:1003F000424449582073756363657373210D0A0085
:100400000D0A005342444958204D4F20636F6465E4
:100410003A20000D0041542B53424457543D000DE7
:100420000A00436865636B73756D3A0020627974E6
:1004300065735D005B000D0041542B5342445742ED
:100440003D00696E7465726E616C53656E645265D1
:1004500063656976650D0A00496E7465726E616C3C
:10046000426567696E3A2073756363657373210D26
:100470000A004154264B300D0041542644300D00F3
:10048000415445310D004E6F206D6F64656D2064E1
:10049000657465637465642E0D0A0041540D004354
:1004A000616C6C696E6720696E7465726E616C4216
:1004B0006567696E0D0A00506F776572696E672017
:1004C0006F6E20526F636B424C4F434B2E2E2E218A
:1004D0000D0A00506F776572696E67206F6666203F
:1004E000526F636B424C4F434B2E2E2E210D0A0050
:1004F0009725593011241FBECFEFD1E2DEBFCDBF0B
:1005000000E00CBF2DE1A0E1B3E001C01D92A532D7
:10051000B207E1F713E0A0E0B2E0E0EFFEE600E0B2
:100520000BBF02C007900D92A031B107D9F712E0BE
:10053000C9E7D2E000E006C021970109802FFE0143
:100540000E94F334C837D10780E00807A9F70E945A
:10055000EA280C94673754CD982F2091DF0581E06D
:10056000213208F043C08091BB058111FCCF8091FE
:10057000DE0532E03093BB059093BA059FEF909370
:10058000B9051092B8052093B705AEEBB5E0E7E9E1
:10059000F5E090E0291331C01092960590919605F0
:1005A000880F892B8093960580919505813049F5B8
:1005B00010929505809196058093BB008091BC00B8
:1005C00083FDF8CF85EC8093BC008091BB05823021
:1005D000E1F38091B9058F3FB1F08091B905803288
:1005E000A1F08091B905803391F084E01092BD05AF
:1005F0001092DF051092BC0508953D9131939F5FE5
:10060000C9CF85EEE0CF80E0F1CF82E0EFCF83E08D
:10061000EDCFCF93DF93EC019A01AB01E889F98923
:1006200082E08083211581EE38074105510581F173
:1006300060E079E08DE390E00E94D13421503109EF
:10064000410951095695479537952795EC85FD85C4
:100650001082EE85FF852083188EEC89FD8986E067
:100660008083EA89FB89808180618083EA89FB89B4
:10067000808188608083EA89FB89808180688083AB
:10068000EA89FB8980818F7D8083DF91CF910895F6
:10069000E889F989108220E1D9CF8091D61B909109
:1006A000D71BDC01ED91FC910084F185E02D1995BB
:1006B00018161906D4F58091D61B9091D71BDC0132
:1006C000ED91FC910284F385E02D19952091DA1CBF
:1006D0003091DB1CF901EA52F44E84832F5F3F4FC7
:1006E0003093DB1C2093DA1C2091E21C3091E31C38
:1006F000F901E452F34E9081891312C02F5F3F4FEE
:100700003093E31C2093E21C8091E21C9091E31C47
:10071000069719F61092E31C1092E21C81E00895EE
:100720001092E31C1092E21CEFCF80E00895089530
:100730000895DC01ED91FC910190F081E02D199478
:10074000EF92FF920F931F93CF93DF938C017B0166
:10075000D0E0C0E0F701EC0FFD1F6491662361F06B
:10076000D801ED91FC910190F081E02DC80119951F
:10077000892B11F02196EECFCE01DF91CF911F9101
:100780000F91FF90EF900895AF92BF92CF92DF92BA
:10079000EF92FF920F931F93CF93DF936C017B0136
:1007A0008B01040F151FEB015E01AE18BF08C017C7
:1007B000D10759F06991D601ED91FC910190F0813A
:1007C000E02DC6011995892B79F7C501DF91CF91ED
:1007D0001F910F91FF90EF90DF90CF90BF90AF905F
:1007E0000895FC01218D328D838D948DA901481BC4
:1007F000590BCA01917008952091CE173091CF17EF
:100800008091D0179091D117281B390B317081E05E
:10081000232B09F480E0089520916E0B30916F0B2B
:100820008091700B9091710B281B390B317081E016
:10083000232B09F480E0089520912612309127128D
:100840008091281290912912281B390B317081E078
:10085000232B09F480E0089520913807309139075F
:1008600080913A0790913B07281B390B317081E04A
:10087000232B09F480E00895FC01A089B1898C91B3
:10088000A689B78982FD13C02C91818D928D019626
:100890009170438D548D8417950751F0A18DB28DC1
:1008A000AE0FBF1F91962C93928F818F08958C91DC
:1008B00008954FB7F894FC01258D368D878D90A152
:1008C0004FBF2817390728F081509E4F821B930B8A
:1008D00008950197FBCFFC01218D328D838D948D7E
:1008E0002817390779F0A38DB48DAE0FBF1F9196ED
:1008F0008C91238D348D2F5F3F4F3170348F238F38
:1009000090E008958FEF9FEF0895FC01218D328DC7
:10091000838D948D2817390739F0838D948DE80FD6
:10092000F91F81A190E008958FEF9FEF0895FC01DA
:10093000A78DB0A1A80FB91FAF5DBD4F2C91878DBA
:1009400090A10196917090A3878FA689B7892C9367
:10095000A089B1898C91837080648C93258D368DAC
:10096000878D90A12817390731F40288F389E02D8B
:1009700080818F7D80830895FF920F931F93CF9383
:10098000DF93EC0181E0888F2D8D3E8D8F8D98A1B6
:1009900028173907C9F4E889F989808185FF14C0CF
:1009A0009FB7F894EE89FF896083E889F98980818F
:1009B0008370806480839FBF81E090E0DF91CF915E
:1009C0001F910F91FF900895F62E0D8D1E8D0F5FD4
:1009D0001F4F11708F8D98A18017910759F40FB692
:1009E00007FCF8CFE889F989808185FFF3CFCE0134
:1009F0009EDFF0CFED8DFE8DEC0FFD1FEF5DFD4F07
:100A0000F0829FB7F8941E8F0D8FEA89FB89808151
:100A10008062D0CFCF93DF93EC01888D8823B1F033
:100A2000AA89BB89E889F9898C9185FD03C08081F9
:100A300086FD0CC00FB607FCF7CF8C9185FFF2CF77
:100A4000808185FFEDCFCE0172DFEACFDF91CF91BC
:100A5000089580E090E0892B21F0FEDE81110E9454
:100A6000000080E090E0892B21F0E6DE81110E94F9
:100A7000000080E090E0892B21F0CEDE81110E9401
:100A8000000080E090E0892B21F0B6DE81110C940B
:100A900000000895282F30E0F901EE52FD4F9491A7
:100AA000F901E457FD4F44912A5B3D4FF901249130
:100AB000222309F435C0992311F191509231F8F4B1
:100AC000E92FF0E08827E859FA4F8F4F0C94F33460
:100AD00099059D057A05910595057F05A005A60553
:100AE000AA05B005B405B805BE05C2057F05C60553
:100AF000CC05D005809180008F7780938000E22F15
:100B0000F0E0EE0FFF1FE45DFD4FA591B4918FB7AC
:100B1000F894EC91611148C040954E234C938FBFDF
:100B20000895809180008F7DE8CF80918000877F3D
:100B3000E4CF84B58F7784BDE2CF84B58F7DFBCFC2
:100B40008091B0008F778093B000D9CF8091B000B2
:100B50008F7DF9CF809190008F7780939000CFCFD9
:100B6000809190008F7DF9CF80919000877FF5CFA5
:100B70008091A0008F778093A000C1CF8091A000CA
:100B80008F7DF9CF8091A000877FF5CF80912001E4
:100B90008F7780932001B3CF809120018F7DF9CF93
:100BA00080912001877FF5CF4E2BB8CFCF93DF9375
:100BB00090E0FC01E457FD4F24918A5B9D4FFC01BE
:100BC00084918823D1F090E0880F991FFC01EE5E9C
:100BD000FD4FA591B491FC01E45DFD4FC591D49109
:100BE00061110EC09FB7F8948C91E22FE0958E238F
:100BF0008C932881E223E8839FBFDF91CF910895F2
:100C00008FB7F894EC91E22BEC938FBFF6CF3FB700
:100C1000F8948091840390918503A0918603B0910C
:100C2000870326B5A89B05C02F3F19F00196A11D8B
:100C3000B11D3FBFBA2FA92F982F8827BC01CD0126
:100C4000620F711D811D911D42E0660F771F881F85
:100C5000991F4A95D1F708958F929F92AF92BF92B4
:100C6000CF92DF92EF92FF924B015C01D0DF6B01DC
:100C70007C01CDDF6C197D098E099F09683E7340A8
:100C800081059105B0F321E0821A9108A108B1080D
:100C900088EEC80E83E0D81EE11CF11C811491047B
:100CA000A104B10431F7FF90EF90DF90CF90BF9097
:100CB000AF909F908F90089564E670E080E090E0A0
:100CC000CBDF0FB6F894A89580916000886180937F
:100CD0006000109260000FBEE4E6F0E08081816069
:100CE000808383B7817F846083BF83B7816083BF44
:100CF000889583B78E7F83BF0895A89568EE73E0CB
:100D000080E090E0A9DF81E008952FB7F89460912A
:100D100080037091810380918203909183032FBFA0
:100D20000895CF92DF92EF92FF920F931F93CF938C
:100D300091E09827909302122091041230910512AD
:100D40002F3F3207C1F0C82F61E0822F2FDFCC2365
:100D5000D1F067EB74E08AEE91E1F2DC61E0809122
:100D6000041298DED2DF6093091270930A12809306
:100D70000B1290930C12CF911F910F91FF90EF9057
:100D8000DF90CF900895C1DF0091091210910A12EF
:100D900020910B1230910C12DC01CB01801B910BC6
:100DA000A20BB30B803D27E09207A105B10568F4C3
:100DB00000ED17E020E030E068017901C81AD90A97
:100DC000EA0AFB0AC701B60147DF63ED74E08AEE69
:100DD00091E1B6DC60E080910412CF911F910F91F8
:100DE000FF90EF90DF90CF9055CECF92DF92EF92B1
:100DF000FF92CF93DF93D82FC62F8091460B90910F
:100E0000470BDC01ED91FC910084F185E02D1995F3
:100E10001816190664F48091460B9091470BDC017B
:100E2000ED91FC910284F385E02D1995E6CFA8950C
:100E30006CDF6B017C0169DF6C197D098E099F09EC
:100E4000603A7F408105910578F5A8956D2F8091D6
:100E5000460B9091470B6DDC64EF71E080E090E011
:100E6000FBDE8091460B9091470BDC01ED91FC91EC
:100E70000084F185E02D199518161906E4F6809185
:100E8000460B9091470BDC01ED91FC910284F385B8
:100E9000E02D1995C813CFCF81E0DF91CF91FF905E
:100EA000EF90DF90CF90089580E0F7CFFC01DB0159
:100EB00012968D919C9113979383828386E292E0A0
:100EC0009183808314968C911497848315968C91CA
:100ED0001597858316964D915D916D917C9119972B
:100EE00046835783608771871A964D915D916D9106
:100EF0007C911D9742875387648775871E964D9115
:100F00005D916D917C91519746875787608B718B6E
:100F100052968C915297828B53964D915D916D9123
:100F20007C915697438B548B658B768B57964D915E
:100F30005D916D917C915A97478B508F618F728F25
:100F40005B968D919C91948F838F0895DC015996C7
:100F5000ED91FC913097B9F083899489A589B68980
:100F60004285538564857585841B950BA60BB70B4D
:100F7000811520E89207A105B10538F08FEF9FE7B2
:100F8000A0E0B0E0089590E080E00895CF93DF9373
:100F90001F92CDB7DEB76983DC01ED91FC91028031
:100FA000F381E02D41E050E0BE016F5F7F4F199566
:100FB0000F90DF91CF910895CF93CFB7F8948091A0
:100FC0007803811123C0EBE7F2E08491E1ECF2E0D9
:100FD0009491E82FF0E0EE0FFF1FEE5EFD4FA5911C
:100FE000B491EC91E92319F461E085E353DD61E00C
:100FF00085E3DCDD8CB580618CBD8CB580648CBDF7
:1010000061E084E3D3DD61E083E3D0DD80917803A8
:101010008F5F80937803CFBFCF91089585ED809344
:10102000BC008091BC0084FDFCCF1092BB050895EC
:1010300020915503260F3327331F21323105ECF45D
:101040002091BB05FC0190E080E0243069F082E053
:101050000895A09155032191AC014B5C5C4FA40F06
:10106000B52FB11D2C930196861798F380915503E7
:10107000680F6093550380E0089581E00895089516
:10108000E0918D0380918C03E81730F4F0E0EB5E83
:10109000FC4F808190E008958FEF9FEF089590912D
:1010A0008D0380918C032FEF3FEF981748F4E92FC1
:1010B000F0E0EB5EFC4F208130E09F5F90938D036A
:1010C000C901089580918C0390918D03891B990B20
:1010D0000895CF92DF92EF92FF920F931F93CF93D9
:1010E000DF937C01CB018A012091BC05222389F08A
:1010F000EB016B01C40ED51ECC15DD0561F06991C5
:10110000D701ED91FC910190F081E02DC701199577
:10111000F3CF642F8DDFC801DF91CF911F910F9125
:10112000FF90EF90DF90CF900895CF93DF931F92C1
:10113000CDB7DEB769832091BC052223F9F0209159
:10114000DF05203258F021E030E0FC0133832283B8
:1011500090E080E00F90DF91CF9108958091BD05E0
:10116000E82FF0E0E254FA4F998190838F5F8093EB
:10117000BD058093DF0581E090E0ECCF61E0CE011A
:10118000019656DFF8CF089561E0FC01848182DC8E
:101190008091790381111092790308958EBD00002A
:1011A0000DB407FEFDCF8EB508958FEFF7CF0F93E7
:1011B0001F93CF93DF93EC01A8DD8B01F6DF8F3F08
:1011C00061F0A3DD601B710B6C177D07B8F380E045
:1011D000DF91CF911F910F91089581E0F9CF8CBDE0
:1011E0009DBD0895CF93DF93EC0180917903811128
:1011F00008C081E0809379038091E0059091E1053A
:10120000EEDF60E08C81DF91CF9144CC8F929F9292
:10121000AF92BF92FF920F931F93CF93DF93EC0196
:10122000F62E49015A018E81882379F08F819885A5
:101230009C012F5F3F4F38872F838230924010F4FC
:10124000B4DFF4CFCE01A0DF1E82CE01CBDF8CE273
:1012500091E0ADDF8F2D8064A1DF08E110E0D501C2
:10126000C401002E04C0B695A795979587950A945A
:10127000D2F794DF08501109083F8FEF180779F76C
:1012800085E9FF2021F028E087E8F2128FEF86DF62
:1012900010E08BDF8A8787FF04C01F3F11F01F5FBC
:1012A000F8CFDF91CF911F910F91FF90BF90AF903A
:1012B0009F908F900895AF92BF92CF92DF92EF925E
:1012C000FF920F931F93CF93DF93EC016901C80145
:1012D000820F931F8130924048F58E81882379F0E8
:1012E00088819981AA81BB8184179507A607B707D2
:1012F00031F48F819885C816D90608F03CC0488320
:1013000059836A837B838B85833039F089E0440F6E
:10131000551F661F771F8A95D1F79A01AB0161E1CE
:10132000CE0174DF882381F083E08D83CE012CDF32
:1013300080E0DF91CF911F910F91FF90EF90DF90B0
:10134000CF90BF90AF900895E0DC5B012EDF8A87DD
:101350008F3F59F4DADC6A197B096D327140B0F3C2
:101360008FE08D83CE0110DFE1CF8E3F81F41886B0
:101370001F8281E08E838F8198858C159D0548F4AE
:1013800014DF8F819885019698878F83F4CF8DE045
:10139000E8CF6701E00EF11E08DFF60181936F01CF
:1013A000EE15FF05C9F78F819885080F191F18875B
:1013B0000F838985882319F00115124090F08E81E2
:1013C000882379F08F8198859C012F5F3F4F388764
:1013D0002F838230924010F4E8DEF4CFCE01D4DEC9
:1013E0001E8281E0A6CFEF92FF920F931F93CF93BF
:1013F000DF93EC01790182E1411551056105710529
:1014000091F08B85833039F089E0440F551F661FBA
:10141000771F8A95D1F79A01AB0168E1CE01F6DE1C
:10142000882319F084E08D8328C08EEFB7DE870112
:101430008EEFF81AF80181918F01B0DE0E151F05AD
:10144000C9F78FEFABDE8FEFA9DEAFDE8A878F7132
:10145000853079F488E592E0AADE882391F020E0D7
:1014600030E0A9016DE0CE01D1DE882361F084E196
:10147000DACF81E18D83CE0187DECE0185DE80E08B
:1014800008C085E1D0CF91DE8111F1CFCE017CDEA5
:1014900081E0DF91CF911F910F91FF90EF90089520
:1014A000CF93DF9380917A03882399F1C0919305BC
:1014B000D091940540910002509101026091020286
:1014C0007091030223E933E0CE018DDF811104C066
:1014D00080E0DF91CF91089540917B0350917C0390
:1014E00060917D0370917E03411551056105710581
:1014F00071F023E933E0CE0176DF882349F31092BF
:101500007B0310927C0310927D0310927E03109255
:101510007A0381E0DECF8F929F92AF92BF92EF92DB
:10152000FF920F931F93CF934B015C01C42F8091C7
:10153000000290910102A0910202B091030288156D
:101540009905AA05BB0539F1ABDF81110BC080E01D
:10155000CF911F910F91FF90EF90BF90AF909F9010
:101560008F90089583E9E82E83E0F82E00E012E0E2
:1015700030E020E0B501A40180919305909194059D
:101580009ADE882321F38092000290920102A092B9
:101590000202B092030240917A034C2B40937A03EB
:1015A00081E0D6CF8F929F92AF92BF92CF92DF927F
:1015B000EF92FF92CF9322EE35E030939405209383
:1015C0009305882309F46BC040E060E070E0CB0134
:1015D000A2DF81110BC080E0CF91FF90EF90DF90F0
:1015E000CF90BF90AF909F908F90089580915105BC
:1015F0008F7789F780915D0590915E05A0915F05D9
:10160000B091600584369105A105B10520F3C09025
:101610005905D0905A05E0905B05F0905C05C11427
:10162000D104E104F104B9F240E0C701B60173DF6F
:10163000882389F280919E0390919F0381159240A7
:1016400051F6A091A303AA2331F26091A1037091F6
:10165000A2036115710509F4BECF2091A0032223D6
:1016600009F4B9CFA09300062093F20590E080E042
:1016700030E0E1E0F0E0C82FAF01082E02C0440FD7
:10168000551F0A94E2F72417350769F041E0480F27
:1016900001968930910579F74093FB059CCFC12CC9
:1016A000D12C7601C1CF8093FB052091A903309105
:1016B000AA0350E040E02115310541F42091B70321
:1016C0003091B8034091B9035091BA032093F305C8
:1016D0003093F4054093F5055093F6054601570104
:1016E000860E971EA11CB11C8092010690920206E4
:1016F000A0920306B0920406E091A403F091A50322
:10170000F0930706E0930606B0E00E94A534DC01E2
:10171000CB01880D991DAA1DBB1D809308069093CF
:101720000906A0930A06B0930B0625E0EE0FFF1FF3
:101730002A95E1F7E150FE4FEF2FFF27E6958E0F38
:101740009F1FA11DB11D8093FC059093FD05A093E3
:10175000FE05B093FF058090A6039090A703B12CDF
:10176000A12C8114910441F48090B3039090B403B0
:10177000A090B503B090B603C81AD90AEA0AFB0ACA
:10178000C80CD91CEA1CFB1C04C0F694E794D7943F
:10179000C794CA95D2F7C092F705D092F805E092A7
:1017A000F905F092FA0585EFC8168FE0D806E10436
:1017B000F10428F48CE08093050681E00DCF80E1F0
:1017C00025EFC2162FEFD206E104F104A0F38091B9
:1017D000BF039091C003A091C103B091C203809355
:1017E000080690930906A0930A06B0930B0680E2C0
:1017F000E2CF4F925F926F927F928F929F92AF92C1
:10180000BF92CF92DF92EF92FF920F931F93CF93ED
:10181000DF93EC01423051056105710590F480E0E1
:10182000DF91CF911F910F91FF90EF90DF90CF90BC
:10183000BF90AF909F908F907F906F905F904F90F0
:10184000089589859A85AB85BC850196A11DB11D3A
:1018500084179507A607B70710F3CB88DC88ED88B7
:10186000FE888F89803109F042C0BB27A72F962FB1
:10187000852F480159012A013B01C80ED91EEA1ED5
:10188000FB1E8091000290910102A0910202B09192
:101890000302C816D906EA06FB0699F58F8980313E
:1018A000B9F5B301A201552766277727440F551FC5
:1018B0004D565C4FFA019182808280917A0381605B
:1018C00080937A038A89823080F08D819E81AF81F6
:1018D000B8858C0D9D1DAE1DBF1D80937B0390931D
:1018E0007C03A0937D03B0937E0381E099CFDB015D
:1018F000CA01E7E0B695A79597958795EA95D1F740
:10190000B8CF40E0C701B60106DE8111C7CF87CF4F
:10191000B301A2014F77552766277727440F551F3C
:10192000440F551F4D565C4FFA0180829182A2826E
:10193000B382C3CF8F929F92AF92BF92CF92DF922A
:10194000EF92FF920F931F93CF93DF93FC0181855A
:101950009285A385B4850196A11DB11D84179507B5
:10196000A607B70770F480E0DF91CF911F910F9128
:10197000FF90EF90DF90CF90BF90AF909F908F90AF
:10198000089583889488A588B6888789803189F5E9
:10199000BB27A72F962F852FE9016A017B018F01B5
:1019A000BC01CD01680D791D8A1D9B1D8090000230
:1019B00090900102A0900202B09003028616970652
:1019C000A806B90601F5F8018789803109F5DD24FB
:1019D000EE24FF24F601EE0FFF1FED56FC4F808131
:1019E0009181B0E0A0E088839983AA83BB8381E0E2
:1019F000BBCFDB01CA01C7E0B695A7959795879540
:101A0000CA95D1F7C9CF40E086DD8111DCCFABCFDD
:101A1000E894C7F8DD24EE24FF24F601EE0FFF1F43
:101A2000EE0FFF1FED56FC4F80819181A281B381A3
:101A3000BF70D9CF4F925F926F927F92AF92BF9259
:101A4000CF92DF92EF92FF920F931F93CF93DF938A
:101A500000D01F92CDB7DEB78C0149835A836B83C8
:101A60007C835901C12CD12C7601412C82E0582E67
:101A7000612C712C49815A816B817C819E012F5F81
:101A80003F4FC80157DF882339F1F8018585A3014D
:101A9000920104C0220F331F441F551F8A95D2F7AD
:101AA000DA01C901C80ED91EEA1EFB1E49815A81FE
:101AB0006B817C818789803111F188EF9FEFAFEFD7
:101AC000BFE0481759076A077B07A0F2F501C082FB
:101AD000D182E282F38281E00F900F900F900F90FD
:101AE000DF91CF911F910F91FF90EF90DF90CF90FA
:101AF000BF90AF907F906F905F904F90089588EF68
:101B00009FEFA0E0B0E0DDCFCF93DF93FC01258114
:101B1000222321F080E0DF91CF910895EC018091A4
:101B20000506803159F582E08583178A108E118E63
:101B3000128E8091060690910706B0E0A0E025E0A5
:101B4000880F991FAA1FBB1F2A95D1F7838B948BEF
:101B5000A58BB68B8EEE95E09C8F8B8F81E08C836E
:101B60001E821F82188619861A861B861C861D8671
:101B70001E861F86188A198A1A8ACDCF803251F69E
:101B800083E08583409108065091090660910A061A
:101B900070910B06478B508F618F728F9F012D5E66
:101BA0003F4F8EEE95E046DF8111D4CFB3CF8F92B9
:101BB0009F92AF92BF92CF92DF92EF92FF920F93DC
:101BC0001F93CF93DF93EC018D8181110EC080E0D4
:101BD000DF91CF911F910F91FF90EF90DF90CF9009
:101BE000BF90AF909F908F9008950B891C892D898D
:101BF0003E89041715072607370748F34A015B019A
:101C0000823031F48A869B86AC86BD8681E0E0CF47
:101C100081149104A104B10449F41E821F82188624
:101C200019861A861B861C861D86F0CF0A851B85A1
:101C30002C853D85EB8DFC8D858590E00996B9015D
:101C4000A8014150510961097109082E04C0769517
:101C50006795579547950A94D2F775016401E1E0BD
:101C6000CE1AD108E108F10804C0F694E794D7949D
:101C7000C7948A95D2F7C416D506E606F70620F073
:101C8000012B022B032B09F58F89988DA98DBA8D15
:101C90008E839F83A887B9878E010A5F1F4FC11467
:101CA000D104E104F10409F4ADCF4E815F81688570
:101CB000798598018B8D9C8D3DDE91E0C91AD10804
:101CC000E108F1088111EBCF82CFC41AD50AE60AE8
:101CD000F70AE2CF3F924F925F926F927F928F927C
:101CE0009F92AF92BF92CF92DF92EF92FF920F93AB
:101CF0001F93CF93DF93CDB7DEB72C970FB6F89431
:101D0000DEBF0FBECDBF5C01DC015B968D909C9069
:101D10005C9716964D905D906D907C90199741144C
:101D200051046104710409F467C0BFEF4B1A5B0AE8
:101D30006B0A7B0A312CF40181859285A385B485D9
:101D40009C01AD012F5F3F4F4F4F5F4F29873A876F
:101D50004B875C87730162011D821E821F82188679
:101D6000F40181859285A385B4852D813E814F81C3
:101D70005885281739074A075B0708F054C089853A
:101D80009A85AB85BC858C159D05AE05BF0550F4C5
:101D900082E0C82ED12CE12CF12C92E0492E512C5E
:101DA000612C712C9E012F5F3F4FB701A601C4012A
:101DB000C1DD8823C1F189819A81AB81BC81892BE6
:101DC0008A2B8B2B09F1260137019FEF491A590AFB
:101DD000690A790A2D813E814F8158852F5F3F4FD7
:101DE0004F4F5F4F2D833E834F8358873FEFC31A7A
:101DF000D30AE30AF30AB4CFF40140805180628031
:101E000073803324339497CFC414D504E604F704C5
:101E100009F70FEF1FEF2FEF3FE0B701A601C40155
:101E2000E8DC811119C080E02C960FB6F894DEBF73
:101E30000FBECDBFDF91CF911F910F91FF90EF901B
:101E4000DF90CF90BF90AF909F908F907F906F90DA
:101E50005F904F903F900895F501468157816085CE
:101E60007185411551056105710531F097018601B4
:101E7000C401BFDC8823B9F2D5011696CD92DD925C
:101E8000ED92FC921997332051F0D701C6010196CB
:101E9000A11DB11DF40180839183A283B383F50159
:101EA0008789908DA18DB28D892B8A2B8B2B39F44C
:101EB000C78AD08EE18EF28E84818068848381E02F
:101EC000B3CF2F923F924F925F926F927F928F92F9
:101ED0009F92AF92BF92CF92DF92EF92FF920F93B9
:101EE0001F93CF93DF9300D0CDB7DEB7FC01858180
:101EF000811118C08FEF9FEF0F900F900F90DF911F
:101F0000CF911F910F91FF90EF90DF90CF90BF90F6
:101F1000AF909F908F907F906F905F904F903F9089
:101F20002F900895848180FFE5CF43895489658986
:101F3000768982859385A485B585312C212C481717
:101F400059076A077B0719F022242394312C6F016B
:101F50002101CE0101963C01DF011696BB83AA83C5
:101F60004114510409F4C2C0F601428553856485C9
:101F700075854A01F1E09F22D6015B968D919C9177
:101F80005C978A019B01E9E036952795179507959F
:101F9000EA95D1F71596EC91E230E1F5FC01628DFE
:101FA000738D848D958D600F711F821F931FA12CDF
:101FB00022E0B22EA818B9084A145B0408F45201B2
:101FC000F601248126FD04C0A114F2E0BF0671F4DD
:101FD000009100021091010220910202309103024F
:101FE000061717072807390709F05CC040E093DAA5
:101FF000882309F47FCFC4018D569C4FD3019C01E7
:102000002A0D3B1DFC012E173F0709F46AC04191C0
:102010004D93F9CFDC011496BC90BA94B022811490
:10202000910479F4B1100DC0452B462B472B69F56F
:10203000F6018789908DA18DB28D86839783A087C5
:10204000B187D6015B96ED91FC915C9716966D91E8
:102050007D918D919C911997625071098109910927
:10206000258504C0660F771F881F991F2A95D2F710
:102070000685178520893189600F711F821F931F84
:102080006B0D711D811D911D92CFD60116964D913C
:102090005D916D917C9119972A813B814BDC811177
:1020A000D0CF28CF730185019401AB01BC01809191
:1020B000930590919405FFD8882309F41BCF6A0CEF
:1020C0007B1CF60182859385A485B5858A0D9B1DB1
:1020D000A11DB11D82879387A487B5874A185B0825
:1020E0003FCF281B390B620E731EEBCF2A94232897
:1020F00009F000CF898190E0FFCEFC01818D928DA7
:10210000009709F0DECE8FEF9FEF08950F931F9396
:10211000CF93DF93EC01898D9A8D10E000E000975A
:1021200089F0CFDE8C010F3F100761F0898D9A8D09
:10213000FC014285538564857585415051096109CB
:10214000710935DDC801DF91CF911F910F9108957D
:10215000CF93DF93EC018D81882379F18C8187FF08
:1021600029C06E857F858889998941E0D4D98823E3
:1021700021F1EA8980E2E89FF0011124ED56FC4F3D
:102180003097D9F08D81823040F48B899C89AD895C
:10219000BE89848F958FA68FB78F8F89988D938FE7
:1021A000828F8F89988DA98DBA8DB58BA48B8C81E8
:1021B0008F778C83DF91CF9173C980E0DF91CF91CE
:1021C0000895CF93DF93EC01C3DF882311F01D82C4
:1021D00081E0DF91CF910895FC01818D928D009770
:1021E00009F0B6CF08952F923F924F925F926F926F
:1021F0007F928F929F92AF92BF92CF92DF92EF9297
:10220000FF920F931F93CF93DF9300D01F92CDB710
:10221000DEB78C015B011A01DC0115968C911597D4
:10222000813009F0C5C014968C9181FFC1C082FD38
:10223000ACC06101D8011A964D915D916D917C9170
:102240001D97C114D10409F423C15B968D919C9113
:102250005C97FC0174802FEF270D2A013B0139E0C8
:1022600076946794579447943A95D1F7722E7420D8
:102270007A01F1E0FF2271101FC0E114F104E1F4D2
:1022800016964D915D916D917C911997411551056F
:102290006105710509F095C057968D919D910D903E
:1022A000BC91A02D0097A105B10509F0ABC0C801F4
:1022B00011DD882309F47CC080E092E08E199F092B
:1022C00046018C159D0508F44C01D8015B964D9193
:1022D0005C915C9716968D919D910D90BC91A02D6F
:1022E0000297A109B109FA01258504C0880F991F39
:1022F000AA1FBB1F2A95D2F7468557856089718929
:10230000840F951FA61FB71F9C01AD01270D311D1E
:10231000411D511D29013A01811432E0930609F053
:1023200077C08091000290910102A0910202B091C9
:10233000030284159505A605B70559F48FEF9FEFA5
:10234000DC018093000290930102A0930202B093FB
:1023500003029501B301A201809193059091940528
:1023600042D8882329F19EEFB91AC818D908F80174
:1023700082859385A485B585880D991DA11DB11D04
:1023800082879387A487B58755CFF80143895489FD
:102390006589768982859385A485B585481759070F
:1023A0006A077B0709F445CFC80101DC811141CFE1
:1023B00081E090E0D80113969C938E93129780E071
:1023C00006C09E012F5F3F4FB5DA811102C090E039
:1023D00075C089819A81AB81BC81F801238D348DD0
:1023E000F901278948EF5FEF60E070E0203121F0CC
:1023F00048EF5FEF6FEF7FE084179507A607B707F9
:1024000008F055CFF80186839783A087B18754CF12
:10241000E114F10489F5D8011A964D915D916D9101
:102420007C911D9753968D919D910D90BC91A02DFF
:10243000481759076A077B07F8F032D8882309F450
:10244000B7CF409200025092010260920202709255
:10245000030280917A03816080937A0397012D565D
:102460003C4FD501C901880D991DF9018E179F07B1
:1024700051F04D914193FACF41E0C301B2014BD8E5
:102480008111ECCF95CF821B930BA80EB91E6DCF97
:10249000F80183899489A589B68984179507A607C9
:1024A000B70738F48481438B548B658B768B8068B7
:1024B0008483F801848183FD18C0C1010F900F90BF
:1024C0000F900F90DF91CF911F910F91FF90EF90A0
:1024D000DF90CF90BF90AF909F908F907F906F9044
:1024E0005F904F903F902F900895C80131DE882370
:1024F00009F45ECFE2CFCF93DF931F92CDB7DEB763
:10250000698341E050E0BE016F5F7F4F6CDE0F904A
:10251000DF91CF910895CF93DF93EC01E98DFA8D90
:10252000309749F481E090E09B838A8390E080E0DB
:10253000DF91CF91089513821282898D9A8D53DE97
:10254000E98DFA8D22813381232B61F7F1CF1F931F
:10255000CF93DF93EC01FC01E459FF4F808191811F
:10256000009751F0DC01ED91FC910190F081E02D9C
:10257000DF91CF911F911994FE01E259FF4F8081A5
:102580009181009779F7162FFE01E059FF4F808166
:102590009181009769F4FE01EE58FF4F808191818F
:1025A000892B21F590E080E0DF91CF911F91089574
:1025B000FE01E552FF4F208131E03093BC052093AE
:1025C000DE051092BD051092DF05DC01ED91FC9156
:1025D0000190F081E02D1995019721F781E00E948B
:1025E000AC028111D8CF81E090E0DECFFE01EB5844
:1025F000FF4F808191810E94EF08CC58DF4F888186
:1026000087FD03C060E00E944A05812F0E94CE082A
:10261000888187FDE8CF61E00E944A05E4CFFC0194
:10262000808591852481358182179307C0F42081AC
:1026300031812115310599F0280F391FD9012C91CD
:1026400062130FC001969187808781E04085518594
:10265000268137814217530709F080E0089520E072
:10266000EFCF11861086F1CFDC015996ED91FC91E8
:10267000309719F08581811101C0FFCF0895DC01E9
:102680005996ED91FC91309741F02581222329F054
:102690000E94A60721E0892B09F420E0822F0895EB
:1026A000CF93DF93FB0122813381DC0113963C93AE
:1026B0002E931297448155816681778114964D93AC
:1026C0005D936D937C9317974085518562857385E3
:1026D00018964D935D936D937C931B971C96EF0119
:1026E0002C969C01275E3F4F49914D93A217B3074B
:1026F000D9F7218D328DFC01328F218FDF91CF915F
:1027000008950E947D0691E0892708958F929F92F7
:10271000AF92BF92CF92DF92EF92FF925C010E9444
:1027200085066B017C0128EE33E0D5010E94FB3465
:102730004B015C010E9485066C197D098E099F0979
:10274000681579058A059B0568F4DBDF882391F31A
:1027500080E0FF90EF90DF90CF90BF90AF909F9080
:102760008F90089581E0F5CFDF92EF92FF920F9363
:102770001F93CF93DF938C017B01D22EEC012D961A
:10278000442329F06EEF71E0CE010E94A003B7014F
:10279000CE010E94A003DD2029F06BEF71E0CE0195
:1027A0000E94A003B701F80180819181DF91CF9150
:1027B0001F910F91FF90EF90DF900C94A0030F9367
:1027C0001F93CF938C01C62FDC011596ED91FC91E0
:1027D000169714968C918823F1F084819581009747
:1027E00041F0DC01ED91FC910190F081E02D6C2F26
:1027F0001995F8018481E0E0F0E0811102C0E0E089
:10280000F0E0309711F08C2F199581E090E0CF9196
:102810001F910F91089582819381E1CF089590E0F7
:1028200080E00895CF93DF93EC0188819981DC01EA
:10283000ED91FC910084F185E02D1995181619068B
:1028400054F488819981DC01ED91FC910284F38537
:10285000E02D1995EACF88819981DC01ED91FC91F9
:102860000084F185E02D199518161906A4F78881C2
:102870009981DC01ED91FC910284F385E02D19959D
:102880008A3049F7CC57DF4F19821882DF91CF91F8
:102890000895CF92DF92EF92FF921F93CF93DF9331
:1028A000EC0180E2689FF0011124ED56FC4F938506
:1028B000917161F0842F827449F080E0DF91CF91B3
:1028C0001F91FF90EF90DF90CF900895142F6A8BA7
:1028D0008091000290910102A0910202B091030246
:1028E0008E879F87A88BB98BC488D588F12CE12C63
:1028F0007601DD24CC24CF8AD88EE98EFA8E828DA3
:10290000938DB0E0A0E0AC01BD014C295D296E299A
:102910007F294F8B588F698F7A8F83858871B1F4A7
:10292000848D958DA68DB78D8B8B9C8BAD8BBE8B3F
:1029300081E08D831F701C831E821F82188619867A
:102940001A861B861C861D8681E0B8CF803109F06F
:10295000B4CF9E012D5E3F4F8B8D9C8D6BD888230D
:1029600009F4ABCF84E0E5CFFB0101900020E9F74B
:102970003197AF01461B570BDC01ED91FC910280B2
:10298000F381E02D19948F929F92AF92BF92EF92B4
:10299000FF920F931F93CF93DF93CDB7DEB7A1972D
:1029A0000FB6F894DEBF0FBECDBF7C019B0150E097
:1029B00040E019A28E010F5D1F4F8AE0882E912CF6
:1029C000A12CB12CCA01B901A50194010E94D134F6
:1029D000605DF80162938F012115310541055105B4
:1029E00089F790E080E0309719F0C701BF01BCDFA4
:1029F000A1960FB6F894DEBF0FBECDBFDF91CF9189
:102A00001F910F91FF90EF90BF90AF909F908F908C
:102A10000895CF93DF93BC0184EB96E1A5DFEC0131
:102A200067E672E084EB96E19FDF8C0F9D1FDF91DC
:102A3000CF9108950F931F93CF93DF93EC01FB0188
:102A4000448155816081718166DD8C0167E672E0A9
:102A5000CE018ADF800F911FDF91CF911F910F91DF
:102A600008950F931F93CF93DF93EC018B01FCDD4F
:102A7000B801CE01DF91CF911F910F91DBCFFC0107
:102A8000808191810C94B135CF93DF93EC01898DD6
:102A90009A8D009739F095DB898D9A8D0E94B1351A
:102AA0001A8E198EDF91CF910895EF92FF920F93B6
:102AB0001F93CF93DF93EC017B018A018881998179
:102AC000009729F02A813B812417350788F4B80143
:102AD0006F5F7F4F0E943A36009791F09983888309
:102AE0001B830A832C813D81232B11F4FC0110826E
:102AF0001D830C83B701888199810E9451370CC0D6
:102B000088819981009711F00E94B135198218824D
:102B10001D821C821B821A82CE01DF91CF911F91F0
:102B20000F91FF90EF900895FB0101900020E9F7CD
:102B30003197AF01461B570BB8CF0F931F93CF931D
:102B4000DF93EC018B01198218821B821A821D828D
:102B50001C828617970749F0FB016081718161151E
:102B6000710519F044815581A0DFF80184819581B8
:102B70009F838E8319861886DF91CF911F910F91C5
:102B800008953F924F925F926F927F928F929F92A1
:102B9000AF92BF92CF92DF92EF92FF920F931F936B
:102BA000CF93DF9300D000D000D01F921F92CDB7FB
:102BB000DEB77C01FE013196CE010C966F0130E24A
:102BC0003193E817F907E1F7DA0130E087E09D91EA
:102BD000B92E992309F43CC09E32F1F48A30C9F42D
:102BE00080E02B960FB6F894DEBF0FBECDBFDF910D
:102BF000CF911F910F91FF90EF90DF90CF90BF90FA
:102C0000AF909F908F907F906F905F904F903F908C
:102C1000089538E08AE0DBCFE2E0F2E0449144231B
:102C200021F031969413FACFDBCF8317C8F24FED22
:102C3000490F4E35A8F64FE9490F4A3118F440EED6
:102C4000B42EB90EF601E30FF11DB0823F5FBFCF86
:102C50008981803229F2322E8B01DB015B968D91C6
:102C60009C915C97F701948F838F16961D921D920D
:102C70001D921C921997FB011286138614861586E5
:102C8000F80182859385A485B58543895489658932
:102C9000768984179507A607B70708F04CC025E08A
:102CA000B695A795979587952A95D1F7F82FFF7038
:102CB000AF2ED80115968C91823008F491CFC801BF
:102CC00000D997FD8DCFF80182859385A485B585C0
:102CD0004F96A11DB11D82879387A487B587F0E227
:102CE000AF9EB00111246D567C4F6115710509F43A
:102CF00077CFDB018C91882341F0853E09F061C0DC
:102D0000BB2029F0BB24B394BBCFB1100EC0F70198
:102D1000A28A8091000290910102A0910202B091DA
:102D2000030286879787A08BB18BDB018C91811181
:102D3000E9CFBB24B394832D8271823109F050CF47
:102D4000BB2009F44BC0F70166857785808991899E
:102D500041E00E948B0A882309F442CFD7015296A2
:102D60008C91B0E28B9FC00111248D569C4F00972F
:102D700009F436CFFC013A9626E1DF011D922A952F
:102D8000E9F72BE0F601DC0101900D922A95E1F7BD
:102D900021E238E2FC01318B208B40E058E057877C
:102DA0004687338B228B318F208F578B468B0E9427
:102DB000500A882309F414CF432DD70152966C9101
:102DC0000AC04BE050E0C6010E942937892B09F068
:102DD00057CF432D6A2DC7015CDD03CFF8018581F4
:102DE000823009F4FDCEC8010E946A0E882309F4DE
:102DF000F7CED8015B96ED91FC915C9716968D907D
:102E00009D90AD90BC901997B2E08B1A9108A108E3
:102E1000B108858504C0880C991CAA1CBB1C8A9526
:102E2000D2F786859785A089B189880E991EAA1E3A
:102E3000BB1E848124013501480E511C611C711C8C
:102E400084149504A604B70401F1E1E04E1A510878
:102E5000610871080E94500A882309F4C1CEE3E991
:102E6000F3E0119283E995E08E179F07D1F7409226
:102E7000000250920102609202027092030280915D
:102E80007A03816080937A03DBCFD8015B96ED9162
:102E9000FC91258580E092E0A0E0B0E004C0880FBE
:102EA000991FAA1FBB1F2A95D2F7F801438954899D
:102EB00065897689840F951FA61FB71F838B948B16
:102EC000A58BB68BD70152961C9283E993E052CF23
:102ED0002F923F924F925F926F927F928F929F922A
:102EE000AF92BF92CF92DF92EF92FF920F931F9318
:102EF000CF93DF93CDB7DEB72E970FB6F894DEBF32
:102F00000FBECDBF6C017B014A0159011E870D87A1
:102F10008C010A5F1F4F65EE71E0C8010E94A0039B
:102F20006D857E85C80120DD62EE71E0C8010E94DA
:102F3000A003E114F10431F0A40170E060E0C701E6
:102F40000E943F3792E0A114B10409F090E080E0C4
:102F50009B878C879601235F3F4F3A8329836EEDD1
:102F600071E0C9010E94A0030E9485066B837C83E7
:102F70008D839E83312C212C10E000E00E94850679
:102F80002B013C012B813C814D815E81421A530A09
:102F9000640A750AF601A08DB18D28EE33E00E9417
:102FA000FB34461657066806790608F086C0A9DB8A
:102FB000811183C0D6018D919C91DC01ED91FC9132
:102FC0000084F185E02D199518161906BCF6F60156
:102FD00080819181DC01ED91FC910284F385E02DEB
:102FE0001995582E682F89819A810E949903A114FE
:102FF000B10401F16B847C846114710449F0930184
:103000002130310599F122E030E03C872B8712C056
:10301000F501E00FF11F808185111FC00F5F1F4F69
:10302000F501E00FF11F91E080E02081211190E097
:103030009B878C87ED85FE85E20DF31D80818511D0
:1030400032C09FEF291A390AED85FE85E20DF31D86
:1030500080818111AFCF81E031C091E080E0D50166
:103060002C91251190E0092F182FE4CFE114F104E1
:1030700009F3BDE05B1669F0E2E08E16910474F08E
:10308000D7015C92B1E08B1A9108F70131967F016C
:10309000D1CF42E050E05C874B87CCCF82E090E01C
:1030A0009C878B87C7CF91E080E0AD85BE852C9152
:1030B000251190E0292E382E7DCF80E02E960FB678
:1030C000F894DEBF0FBECDBFDF91CF911F910F915E
:1030D000FF90EF90DF90CF90BF90AF909F908F9038
:1030E0007F906F905F904F903F902F9008958F92B8
:1030F0009F92AF92BF92CF92DF92EF92FF920F9387
:103100001F93CF93DF9300D000D0CDB7DEB76FE928
:1031100074E08AEE91E10E94A0038091021288235C
:1031200009F48DC081E00E9491060E9485066B0122
:103130007C010E9485066C197D098E099F09643FF8
:10314000714081059105C0F4DCDA882391F384E0B5
:1031500090E026960FB6F894DEBF0FBECDBFDF918C
:10316000CF911F910F91FF90EF90DF90CF90BF9084
:10317000AF909F908F9008950E9485064B015C014F
:103180000E948506681979098A099B096038794A7D
:103190008340910508F056C021E041E06BE974E0FE
:1031A00084EE91E1E1DA05E612E030E020E050E063
:1031B00040E070E060E084EE91E18ADEF82EA1DA72
:1031C0008111C5CFFF20E1F280E894E09A838983E2
:1031D00089E794E09C838B8382E794E09E838D83D0
:1031E000CE0101967C016E0197E0C90ED11CF7015A
:1031F000619171917F0121E041E084EE91E1B4DAC7
:1032000005E612E030E020E050E040E070E060E0F1
:1032100084EE91E15DDE811106C073DA811197CFF2
:1032200083E090E096CFCE14DF0409F768E574E000
:103230008AEE91E10E94A00390E080E08ACF81E0D5
:1032400090E087CF66E874E08AEE91E10E94A003E7
:1032500085E090E07ECF2F923F924F925F926F92E7
:103260007F928F929F92AF92BF92CF92DF92EF9216
:10327000FF920F931F93CF93DF93CDB7DEB7C05468
:10328000D1090FB6F894DEBF0FBECDBF3C017B0164
:103290006A013CAF2BAF1AAF09AF2C0126E0420EFA
:1032A000511C62E474E0C2010E94A003D3015E9647
:1032B0008C918111CAC020E041E0E114F10409F4CD
:1032C0009FC0C114D10409F49BC068E374E0C3013A
:1032D0004BDA5301BDE0AB0EB11CB601C50153DBA7
:1032E000B601F301808191814EDB21E040E066E38D
:1032F00074E0C30139DA08E512E030E020E050E084
:1033000040E070E060E0C301E3DD882309F458C0C9
:10331000870147018C0C9D1CF12CE12C8016910635
:1033200099F0D3018D919C91F80161918F01DC019D
:10333000ED91FC910190F081E02D1995F801319704
:103340008081E80EF11CEACF64E374E0C5010E94BD
:10335000A003B601C50117DB6CE274E0C5010E9451
:10336000A00362E274E0C2010E94A003B701C2019F
:103370000ADB6FE174E0C2010E94A003F3018081C7
:103380009181DC01ED91FC910190F081E02D6F2D98
:103390001995F30180819181DC01ED91FC910190FF
:1033A000F081E02D6E2D199500E612E030E020E06E
:1033B00050E040E070E060E0C3018ADD81112DC083
:1033C000A0D9811184C203E010E0C801C05CDF4FC6
:1033D0000FB6F894DEBF0FBECDBFDF91CF911F9126
:1033E0000F91FF90EF90DF90CF90BF90AF909F90A4
:1033F0008F907F906F905F904F903F902F900895A7
:1034000065E174E0C301B0D921E040E063E174E01C
:10341000C301AAD905E612E0C9CF0E9485064B0177
:103420005C01FE0131961F010E9485066819790929
:103430008A099B09603E73498440910508F04AC29D
:10344000D3015E96DC90DD2019F00AE010E0BDCFDC
:1034500021E041E06BE773E0C30186D905E612E0A5
:103460002AE632E042E050E0B101C30131DD8823B9
:1034700009F4A6CF8981082E000C990BC0970A97F2
:1034800008F0A1CFC1010E947A307C01F30184A130
:103490008111E1C0D30192968D919C91E816F906B5
:1034A0000CF4FAC018AE1FAA1EAA1DAA1CAA1BAAB9
:1034B0001AAA19AA18AA1FA61EA61DA621E041E055
:1034C00067E673E0C30150D905E612E029E732E070
:1034D00040E250E0B101C301FBDC882309F470CF66
:1034E00027E330E02C0F3D1F3AA329A345E350E02A
:1034F0004C0F5D1F5CA34BA383E390E08C0F9D1FDB
:103500009EA38DA3A1E3B0E0AC0FBD1FB8A7AFA3EE
:10351000EFE2F0E0EC0FFD1FFAA7E9A72DE230E0A3
:103520002C0F3D1F3CA72BA77E0131E2E30EF11CBF
:1035300010E000E0C1010115110511F080E090E0FC
:1035400062E872E00E94BD30009709F43CCF0E940F
:103550009730D701ED91FD917D01718360830F5FFD
:103560001F4F0630110531F763E074E0C2010E947D
:10357000A003EFA8F8ACB701C20105DA60E074E07F
:10358000C2010E94A003B5E0EB16F10408F085C16A
:103590006FEE73E0C2010E94A0038DA59EA5F3010A
:1035A000958F848F8BA99CA9019709F06DC12BADD4
:1035B0003CAD232B09F468C16BED73E0C2010E949E
:1035C000A00321E041E06DE573E0C301CDD805E83B
:1035D00012E030E020E050E040E070E060E0C30145
:1035E00077DCC82E882309F4EBCE0E9485061B01E8
:1035F0002C010E9485064B015C0182189308A408E7
:10360000B508F301A08DB18D28EE33E00E94FB34A4
:1036100086169706A806B90678F473D8811157C1A3
:10362000D3018D919C91DC01ED91FC910084F18599
:10363000E02D19950297ECF2F30180819181DC0174
:10364000ED91FC910084F185E02D1995029774F5B8
:1036500007E010E0BACE82A193A1E816F9060CF4B7
:1036600019CF21E041E061E773E0C3017DD805E6B1
:1036700012E020E732E048E150E0B101C30128DC6C
:10368000882309F49DCE8981082E000C990B0E9495
:103690001637892B09F0FECE64E973E0C2010E945F
:1036A000A003D30154968D919C910DC1F3018081AB
:1036B0009181DC01ED91FC910284F385E02D199557
:1036C000F82EF30180819181DC01ED91FC9102845F
:1036D000F385E02D199500E01F2D080F191F7301C8
:1036E000BDE0EB0EF11C6FE473E0C7010E94A00384
:1036F000B801C70148D96DE473E0C7010E94A00377
:10370000B12CA12CA016B10608F05AC00E9481135A
:103710008111DDC0F30180819181DC01ED91FC918B
:103720000084F185E02D1995892B31F1F301808119
:103730009181DC01ED91FC910284F385E02D1995D6
:10374000BFEFAB1ABB0AEBADFCAD3097A9F029ADCA
:103750003AAD2115310581F0D9012D913C91119798
:10376000232B61F180838D919C91119701978D930B
:103770009C933196FCAFEBAF0E9485069B01AC0198
:10378000221933094409550921962CAF3DAF4EAF9C
:103790005FAF2197F301A08DB18D28EE33E00E9439
:1037A000FB3421962CAD3DAD4EAD5FAD2197261774
:1037B00037074807590708F4A5CF4ACFDC2CDCCFE0
:1037C0000E9485064B015C0182189308A408B50885
:1037D000F301A08DB18D28EE33E00E94FB348616F4
:1037E0009706A806B90680F40E94811381116FC064
:1037F000D3018D919C91DC01ED91FC910084F185C8
:10380000E02D19950297E4F2F30180819181DC01AA
:10381000ED91FC910084F185E02D199502970CF44F
:1038200017CFF30180819181DC01ED91FC9102843D
:10383000F385E02D1995C82EF30180819181DC017B
:10384000ED91FC910284F385E02D19955C0166E40D
:1038500073E0C7010E94A00360E07C2D6A0D7B1D10
:10386000C70191D864E473E0C7010E94A003E9ADE9
:10387000FAAD309711F01183008308E010E0D11009
:10388000A4CD10E000E0A1CD29AD3AAD2115310560
:10389000C1F3D9011D921C92F4CFC7018D7F0C9703
:1038A00021F0B0E1EB16F10431F46CEC73E0C201ED
:1038B0000E94A0038ACD6FEA73E0C2010E94A003B8
:1038C000F301868997890E9486138111ADCD04E0AA
:1038D00010E07BCD63E873E0C2010E94A003B8CE84
:1038E000EF92FF920F931F93CF93DF93EC017B0135
:1038F0008A011B821A8288EE93E0A0E0B0E08C83FC
:103900009D83AE83BF838AE492E0998388838DE1AF
:1039100090E00E9415359A8F898F009779F02DE1FC
:10392000F701DC0101900D922A95E1F74CE050E09F
:10393000B801CE010C960E945837188EDF91CF91B6
:103940001F910F91FF90EF9008952F923F924F9209
:103950005F926F927F928F929F92AF92BF92CF921F
:10396000DF92EF92FF920F931F93CF93DF93CDB728
:10397000DEB7C756D1090FB6F894DEBF0FBECDBF74
:103980006C015B01A6964FAFA69719A218A286E21A
:1039900092E09F8F8E8F1BA21C821B829A83898349
:1039A0001E824E018EE1880E911CC4010E94840D7E
:1039B00075018E010F5F1F4F240118016FE270E047
:1039C000C7010E944637009709F45BC0F7012081C8
:1039D0002F3271F4FFEFEF1AFF0A902F812F82012F
:1039E000492E582E942D852D2801092F182FE6CF0A
:1039F0008E198D3008F08CE0682E712CA301B70170
:103A0000CE01885A9F4F0E945837E8E5F0E0EC0F4E
:103A1000FD1FE60DF71D1082C8010E94E110F8019C
:103A200085818823F9F01EAE1DAE86E292E09CAF40
:103A30008BAF21961FAE2197A896EEADFFADA8974C
:103A4000AE0EBF1EF5018081811128C0BE01655CEC
:103A50007F4FC1010E9456074FE852E0B101C601F5
:103A60003FDF3AC021E0AE01485A5F4FB201C801C2
:103A700088D88823C1F2E60CF71CC2010E94E1102D
:103A8000B1CFC7018A199B09A8969FAF8EAFA8979F
:103A9000B201CE01CB960E945607CECF19A218A232
:103AA00086E292E09F8F8E8F1BA221968FAD219789
:103AB00081112DC0F6011382128288EE93E0A0E0FE
:103AC000B0E084839583A683B7838AE492E09183F0
:103AD0008083128E118E1486C601C959DF4F0FB62E
:103AE000F894DEBF0FBECDBFDF91CF911F910F9134
:103AF000FF90EF90DF90CF90BF90AF909F908F900E
:103B00007F906F905F904F903F902F900895A69672
:103B10002FADA697A501BE01655C7F4FC40131D8CA
:103B2000882341F2CE01CB960E94E110A6968FAD7C
:103B3000A6978670863039F449A95AA96BA97CA941
:103B4000C4010E94D70DB401C1010E945607A5010E
:103B500085CF0F931F93CF93DF93CDB7DEB7A79792
:103B60000FB6F894DEBF0FBECDBF8C010E94341398
:103B700061E972E0C8010E94B4140E9485061BA28C
:103B80001AA21DA21CA21FA21EA22AE0AE014F5F14
:103B90005F4F0E941231BE016F5F7F4FCE01829650
:103BA0000E949415BE016E5D7F4FC8010E941A15D8
:103BB000CE0182960E943F1567E672E0C8010E941E
:103BC000B414A7960FB6F894DEBF0FBECDBFDF9139
:103BD000CF911F910F910895FF920F931F93CF9351
:103BE000DF93CDB7DEB7A8970FB6F894DEBF0FBE50
:103BF000CDBF8C01F62ECA01B9011CA21BA21EA2C8
:103C00001DA218A61FA22AE0AE014F5F5F4F0E94BF
:103C1000E730BE016F5F7F4FCE0183960E949415FF
:103C20002FA138A5F801F38E6BA17CA1C9010197E2
:103C300050E040E0D9012630310514F0A5E0B0E0B5
:103C40004A175B07A4F48217930730F4DB01A80F2F
:103C5000B91F6115710521F410929203A2E9B3E036
:103C6000AC91A0A34F5F5F4F31970197E3CFCE0197
:103C700083960E943F15A8960FB6F894DEBF0FBE3C
:103C8000CDBFDF91CF911F910F91FF9008952F929B
:103C90003F924F925F926F927F928F929F92AF92DC
:103CA000BF92CF92DF92EF92FF921F93CF93DF9359
:103CB00000D000D000D01F92CDB7DEB79A87898799
:103CC0008F509F4F98878F8329843A8426E8220E4D
:103CD000311C89859A858A509F4F9C838B83A98547
:103CE000BA85A650BF4FBE83AD83C984DA84BCE7D2
:103CF000CB1ABEEFDB0AE985FA85ED57FE4FFA8352
:103D0000E983E984FA84FEE7EF1AFEEFFF0AA9854A
:103D1000BA858D919C91DC01ED91FC910084F18537
:103D2000E02D1995181619060CF0BCC10E948506E5
:103D30002B013C01EF81F88580818111AFC1A984FD
:103D4000BA84F2EFAF0EB11CD5018D919C91009712
:103D500009F4F7C0DC01ED91FC910084F185E02DC0
:103D60001995892B09F49AC1F50180819181DC01B3
:103D7000ED91FC910284F385E02D1995182FA9840B
:103D8000BA84B4EFAB0EB11CF5018081918100972C
:103D9000A9F0DC01ED91FC910084F185E02D1995ED
:103DA000892B09F44FC1F50180819181DC01ED91EE
:103DB000FC910284F385E02D1995182FEB81FC818D
:103DC00080819181892B91F0A981BA818C91F70131
:103DD000908198170CF4B7C0F101E80FF11D87FD31
:103DE000FA95E452FF4F10818F5F8C93E985FA8535
:103DF000E850FF4F80819181892BA1F189849A84B9
:103E0000FBEF8F0E911CD4018D919C910E94EF08C5
:103E1000ED81FE81808187FD03C060E00E944A053C
:103E20008FEF0E94CE08182FAD81BE818C9187FD47
:103E300003C061E00E944A051A3021F4F601808136
:103E40008D3009F7A12E012E000CBB08C5010E9480
:103E50002337892B29F4C5010E948333892B99F2DA
:103E6000D6011C9380911B0790911C07E0911D07C0
:103E700021E02E0F20931D07E80FF92FF11D10836D
:103E800020911D07283718F027E720931D07809001
:103E9000110390901203A0901303B09014031A30F2
:103EA00009F0DDC0E0911D07E80FF92FF11D108228
:103EB000835A964009F0D0C08BE296E090931C079D
:103EC00080931B0710921D0781E080931E070E94BC
:103ED0008506E985FA85E751FF4F60837183828308
:103EE0009383E985FA85E351FF4F80829182A28214
:103EF000B3821092110310921203109213031092C6
:103F00001403E985FA85EC57FF4F80819181118276
:103F100010822A960FB6F894DEBF0FBECDBFDF9198
:103F2000CF911F91FF90EF90DF90CF90BF90AF9017
:103F30009F908F907F906F905F904F903F902F90C9
:103F4000089510E01CCF8091BB058111FCCF81E06A
:103F50008093BB058093BA059FEF9093B9051092AB
:103F6000B8059FE19093B7058093960580919605DB
:103F700080628093960580919505813009F066C036
:103F800010929505809196058093BB008091BC00AE
:103F900083FDF8CF85EC8093BC008091BB05813018
:103FA000E1F38091B80590E2803210F49091B80569
:103FB000A7E9B5E0E5E1F3E080E0891349C010929C
:103FC0008D0380938C03803209F03CC0D7011C9292
:103FD00080E2A82EB12CEB81FC8180819181DC01F3
:103FE000ED91FC910284F385E02D19958A3021F43E
:103FF000F60190819D3079F4D6018C93F701908180
:10400000F101E90FF11D97FDFA95E452FF4F80830E
:104010009F5FD7019C93B1E0AB1AB108E1F6F701BD
:1040200080818150808381110AC0E985FA85EE592B
:10403000FE4F80818A3019F48FEFD7018C93E9818C
:10404000FA8110821A3009F45CCF15C085EEA3CF37
:104050002D9121938F5FB1CF83EA96E02FCF8928EE
:104060008A288B2841F440921103509212036092E7
:10407000130370921403E985FA85EC57FF4F808192
:1040800091818038910564F4A985BA85A80FB91F7C
:1040900014961C9301969183808339CE10E0EBCF68
:1040A0001182108290E080E034CF0C9497340C940D
:1040B0008F34CF92DF92EF92FF920F931F93CF93A3
:1040C0008C01F5DFF82EC8010196F1DFC82FC80179
:1040D0000296EDDFC82EC8010396E9DF082F6C2F8A
:1040E00070E090E080E0982F872F762F66276F0D85
:1040F000711D811D911DD12CF12CE12C7601DD2447
:10410000CC246C0D7D1D8E1D9F1D10E030E020E045
:10411000302F222711270027600F711F821F931F46
:10412000CF911F910F91FF90EF90DF90CF90089566
:10413000FF920F931F93CF93DF93CDB7DEB76B97AB
:104140000FB6F894DEBF0FBECDBF8C01F62E65E032
:1041500070E080E090E00E942C06C8010E944415A7
:1041600065E070E080E090E00E942C06F80182A1FA
:1041700093A19FDF9B01AC016F2DC8012DDD65E090
:1041800070E080E090E00E942C06B801655E7F4FF1
:1041900041E0CE010196D9DBBE016F5F7F4FC801C0
:1041A0000E94501365E070E080E090E00E942C06D1
:1041B0006B960FB6F894DEBF0FBECDBFDF91CF91E7
:1041C0001F910F91FF9008959F92AF92BF92CF924F
:1041D000DF92EF92FF920F931F93CF93DF93CDB7B0
:1041E000DEB76B970FB6F894DEBF0FBECDBF8C0164
:1041F000962EFC0186A1811102C0C80169D065E03C
:1042000070E080E090E00E942C06C8010E944415F6
:1042100065E070E080E090E00E942C06F801A2A02A
:10422000B3A0C50146DF6B017C01F6E49F1220C0FC
:104230008FEFC81AD80AE80AF80A6C2DC50135DFD5
:104240009927F7FC9A958F2D7E2D6D2DC50101962E
:104250002CDFB701992777FD9095892FC50102962C
:1042600024DF6F2D772788279927C50103961DDF47
:10427000A7019601692DC801AFDC65E070E080E020
:1042800090E00E942C06B801655E7F4F47E1CE01A9
:1042900001965BDBBE016F5F7F4FC8010E94501328
:1042A00065E070E080E090E00E942C066B960FB60F
:1042B000F894DEBF0FBECDBFDF91CF911F910F915C
:1042C000FF90EF90DF90CF90BF90AF909F900895B8
:1042D0006F927F928F929F92AF92BF92CF92DF9216
:1042E000EF92FF920F931F93CF93DF93EC0186E43D
:1042F0008B8F80E38C8F8D8F8E8F8F8F88A319A2E9
:1043000035E3E32E42E5D42E50E5C52E63E0762E4C
:1043100076E0672EE2E0FE2E80911106882321F0E0
:104320008CE096E00E94E1101092ED051092EB05F2
:104330001092E8051092E705E092E6050E948506D6
:104340008B0161E08091E6050E94D60561E08091D5
:10435000E6050E944A050E94DC07D092E005109213
:10436000E1058091E0059091E1050E94EF082AE0C7
:10437000B22E8FEF0E94CE08BA94B110FACF82EE1F
:1043800095E00E94F20820E030E0A90160E082EEB2
:1043900095E00E940609B82E8093EC0581E0B816DE
:1043A00059F00E948506601B710B613D774058F300
:1043B00081E08093E70542C02AEA31E040E050E026
:1043C00068E082EE95E00E94060982FF2AC0B09262
:1043D000ED058091ED05812C912C5401823029F45A
:1043E000812C912CA12C80E4B82E20E030E0A90192
:1043F00067E382EE95E00E940609A501940169E257
:1044000082EE95E00E9406098093EC058823F1F086
:104410000E948506601B710B613D774030F388E098
:10442000C8CF94E0B92E0E94D5088093EC05BA94C9
:10443000B110F9CF8A3A39F0F092E70582EE95E0B3
:104440000E94C40869CFF092ED05C3CF8091ED05BD
:104450008230D1F420E030E0A9016AE382EE95E0F9
:104460000E940609882319F06092E705E7CF0E94B1
:10447000D508807C803C11F47092ED050E94D5082F
:104480000E94D5080E94D50882EE95E00E94C408DB
:10449000C092E0051092E10581E00E94D20A8823D3
:1044A000D1F08CE096E00E94840D882309F434CF8B
:1044B00081E08EA366E4CE01DF91CF911F910F9131
:1044C000FF90EF90DF90CF90BF90AF909F908F9034
:1044D0007F906F9079CE80E00E94D20A882309F401
:1044E0001BCFDFCF1F920F920FB60F9211240BB686
:1044F0000F922F933F934F935F936F937F938F937D
:104500009F93AF93BF93EF93FF9385EB97E10E9447
:104510009704FF91EF91BF91AF919F918F917F9100
:104520006F915F914F913F912F910F900BBE0F9024
:104530000FBE0F901F9018951F920F920FB60F92FB
:1045400011240BB60F922F933F934F935F936F936A
:104550007F938F939F93AF93BF93EF93FF9385EBDD
:1045600097E10E943C04FF91EF91BF91AF919F9121
:104570008F917F916F915F914F913F912F910F900C
:104580000BBE0F900FBE0F901F9018951F920F92A9
:104590000FB60F9211240BB60F922F933F934F93A8
:1045A0005F936F937F938F939F93AF93BF93EF939B
:1045B000FF9385E59BE00E949704FF91EF91BF91E7
:1045C000AF919F918F917F916F915F914F913F91AB
:1045D0002F910F900BBE0F900FBE0F901F9018954C
:1045E0001F920F920FB60F9211240BB60F922F93BA
:1045F0003F934F935F936F937F938F939F93AF936B
:10460000BF93EF93FF9385E59BE00E943C04FF91ED
:10461000EF91BF91AF919F918F917F916F915F913A
:104620004F913F912F910F900BBE0F900FBE0F90A7
:104630001F9018951F920F920FB60F9211240BB670
:104640000F922F933F934F935F936F937F938F932B
:104650009F93AF93BF93EF93FF938DE092E10E94FE
:104660009704FF91EF91BF91AF919F918F917F91AF
:104670006F915F914F913F912F910F900BBE0F90D3
:104680000FBE0F901F9018951F920F920FB60F92AA
:1046900011240BB60F922F933F934F935F936F9319
:1046A0007F938F939F93AF93BF93EF93FF938DE08F
:1046B00092E10E943C04FF91EF91BF91AF919F91D5
:1046C0008F917F916F915F914F913F912F910F90BB
:1046D0000BBE0F900FBE0F901F9018951F920F9258
:1046E0000FB60F9211240BB60F922F933F934F9357
:1046F0005F936F937F938F939F93AF93BF93EF934A
:10470000FF938FE197E00E949704FF91EF91BF9193
:10471000AF919F918F917F916F915F914F913F9159
:104720002F910F900BBE0F900FBE0F901F901895FA
:104730001F920F920FB60F9211240BB60F922F9368
:104740003F934F935F936F937F938F939F93AF9319
:10475000BF93EF93FF938FE197E00E943C04FF919A
:10476000EF91BF91AF919F918F917F916F915F91E9
:104770004F913F912F910F900BBE0F900FBE0F9056
:104780001F9018951F920F920FB60F9211242F931E
:104790003F938F939F93AF93BF93809180039091AA
:1047A0008103A0918203B091830330917F0323E0C2
:1047B000230F2D3758F50196A11DB11D20937F03BE
:1047C0008093800390938103A0938203B09383032B
:1047D0008091840390918503A0918603B091870313
:1047E0000196A11DB11D8093840390938503A0932E
:1047F0008603B0938703BF91AF919F918F913F91B3
:104800002F910F900FBE0F901F90189526E8230F41
:104810000296A11DB11DD2CF1F920F920FB60F921B
:1048200011240BB60F922F933F934F935F936F9387
:104830007F938F939F93AF93BF93EF93FF93809159
:10484000B900887F803609F44DC008F040C0883236
:1048500009F4A9C028F5803109F49DC0C8F4882363
:1048600009F4FBC0883009F496C0FF91EF91BF9125
:10487000AF919F918F917F916F915F914F913F91F8
:104880002F910F900BBE0F900FBE0F901F90189599
:10489000883109F488C0803241F78093B90514C08B
:1048A000803409F49DC040F48033B9F38833E9F6CD
:1048B0008093B90585ECB0C0803509F485C0883592
:1048C00009F496C0883489F60E940E08CECF883944
:1048D00009F48CC038F5883729F050F4883611F087
:1048E000803719F683E08093BB051092770357C099
:1048F000883809F47BC0803919F0803809F0B5CFC9
:1049000080917703803208F071C0E091770381E0F5
:104910008E0F809377038091BB00F0E0E95AFC4F43
:1049200080833DC0803B39F0E0F4803A09F479C0DF
:10493000883A09F09ACF84E08093BB051092560321
:1049400010925503E0918A03F0918B0319958091A1
:10495000550381110FC081E08093550310923503F8
:1049600009C0803C09F4A6CF883C09F4A3CF883B5A
:1049700009F07BCFE091560381E08E0F80935603C0
:10498000F0E0EB5CFC4F80818093BB00909156037C
:104990008091550329C0809196058093BB0085ECDA
:1049A0008093BC0062CF9091B8058091B7059817AD
:1049B00058F5E091B80581E08E0F8093B805F0E0DE
:1049C000E956FA4F8081E9CFE091B80581E08E0F7A
:1049D0008093B8058091BB00F0E0E956FA4F8083E0
:1049E0009091B8058091B7059817C8F285E8D8CF9F
:1049F000E091B80581E08E0F8093B8058091BB00EF
:104A0000F0E0E956FA4F80838091BA0581115CCFBE
:104A100081E08093950584EA8093BC001092BB05E9
:104A200024CF85EC8093BC001092BB058091770366
:104A3000803230F4E0917703F0E0E95AFC4F1082C5
:104A40006091770370E0E0918803F091890387E536
:104A500093E019951092770308CF1092B90534CFDF
:104A60001F920F920FB60F9211240BB60F922F9335
:104A70003F938F939F93AF93BF93CF93DF93EF9326
:104A8000FF93E0919003F0919103309749F0A68550
:104A9000B7859585868D81FF14C08C918923A1F4FB
:104AA000FF91EF91DF91CF91BF91AF919F918F9146
:104AB0003F912F910F900BBE0F900FBE0F901F9044
:104AC00018958C91892361F7A389B4899C91858974
:104AD000809589238C93868997890197F1F7208D9A
:104AE000318DC685D78588E0D9011197F1F7988176
:104AF0008150D1F780918F0390E001968F739927B1
:104B000020918E03281779F090918F0380938F0363
:104B1000828D938D0197F1F7A389B4898C91958942
:104B2000892B8C93BDCF868D8160868FF1CF8F923C
:104B30009F92AF92BF92CF92DF92EF92FF920F932C
:104B40001F93CF93DF931092B8171092B71788EE88
:104B5000882E83E0982EA12CB12C8092B9179092C8
:104B6000BA17A092BB17B092BC1784E192E0909361
:104B7000B6178093B51725E331E03093C217209321
:104B8000C11724E331E03093C4172093C31720E307
:104B900031E03093C6172093C51721E331E03093FD
:104BA000C8172093C71722E331E03093CA17209328
:104BB000C91726E331E03093CC172093CB1710921E
:104BC000CF171092CE171092D1171092D0171092C3
:104BD000D3171092D2171092D5171092D41725E53B
:104BE000E22E2BE0F22E1092580B1092570B80926F
:104BF000590B90925A0BA0925B0BB0925C0B909366
:104C0000560B8093550B25ED30E03093620B2093CB
:104C1000610B24ED30E03093640B2093630B20EDA7
:104C200030E03093660B2093650B21ED30E030933C
:104C3000680B2093670B22ED30E030936A0B2093D2
:104C4000690B26ED30E030936C0B20936B0B1092C8
:104C50006F0B10926E0B1092710B1092700B1092E2
:104C6000730B1092720B1092750B1092740B3DE047
:104C7000C32E32E1D32E1092101210920F12809296
:104C8000111290921212A0921312B09214129093D9
:104C90000E1280930D122DEC30E030931A122093F7
:104CA00019122CEC30E030931C1220931B1228ECCC
:104CB00030E030931E1220931D1229EC30E0309327
:104CC000201220931F122AEC30E0309322122093FE
:104CD00021122EEC30E030932412209323121092F4
:104CE0002712109226121092291210922812109256
:104CF0002B1210922A1210922D1210922C120FE1E8
:104D000017E01092220710922107809223079092B9
:104D10002407A0922507B09226079093200780933E
:104D20001F0785EC90E090932C0780932B0784EC71
:104D300090E090932E0780932D0780EC90E0909365
:104D4000300780932F0781EC90E090933207809397
:104D5000310782EC90E0909334078093330786EC20
:104D600090E09093360780933507109239071092A0
:104D7000380710923B0710923A0710923D071092A5
:104D80003C0710923F0710923E0780E58093E005B4
:104D90001092E1051092E7051092E8051092EB05DC
:104DA0001092ED0582E090E0A0E0B0E08093EE0587
:104DB0009093EF05A093F005B093F10510920506CE
:104DC00010920F0610920E0686E292E090930D0666
:104DD00080930C061092110661E080E30E94D605D4
:104DE00060E08EE20E94D605C4EEDCE11092E71C82
:104DF0001092E61C8092E81C9092E91CA092EA1C9A
:104E0000B092EB1C8AE492E09093E51C8093E41C42
:104E10001092FE1C1092FD1C1092F01C81E090E09C
:104E2000A0E0B0E08093061D9093071DA093081D9D
:104E3000B093091D10920A1D85EB97E19093D71B43
:104E40008093D61BD093D91BC093D81B86E0EAE091
:104E5000F2E0ACEDBCE101900D928A95E1F7D092C1
:104E60002F16C0922E16D0933116C0933016109282
:104E7000B3161092B2161092B7161092B6168EE3B1
:104E800092E09093B5168093B41680E094E9A5E380
:104E9000B7E780930B1790930C17A0930D17B0935F
:104EA0000E1780930F1790931017A0931117B093BC
:104EB00012178093131790931417A0931517B0939C
:104EC00016178093171790931817A0931917B0937C
:104ED0001A1780931B1790931C17A0931D17B0935C
:104EE0001E178FEF8093281791E590932917109242
:104EF0002A178093B0171092B1171092B217109220
:104F00002117109220171092251710922417109233
:104F100027171092261710921E0710921F17109233
:104F20001D0783EA96E090931C0780931B0710925D
:104F3000FE161092FD161092FC161092BF161092DB
:104F4000BE161092BD161092BA161092B916109293
:104F5000B8161092FA161092F9161092F8161092CE
:104F6000FB161092BC161092BB161092F4161092FB
:104F7000F5161092F6161092F7161092F01610927F
:104F8000F1161092F2161092F3161092EC1610927F
:104F9000ED161092EE161092EF161092E81610927F
:104FA000E9161092EA161092EB161092E41610927F
:104FB000E5161092E6161092E7161092E01610927F
:104FC000E1161092E2161092E3161092DC1610927F
:104FD000DD161092DE161092DF161092D81610927F
:104FE000D9161092DA161092DB161092C41610928F
:104FF000C5161092C6161092C7161092C0161092BF
:10500000C1161092C2161092C316D0922317C092E6
:1050100022171092B4171092B317F092DD11E0929C
:10502000DC118EE296E19093DF118093DE114FE068
:10503000C42E4DE1D42ED092E111C092E011D09354
:10504000E311C093E21124EE31E1F092E511E09218
:10505000E4111092E7111092E6111092E9111092EA
:10506000E8111092ED111092EC1142E352E05093CE
:10507000EB114093EA1181E08093EE113093F0112F
:105080002093EF111092F4111092F3115093F2113A
:105090004093F1111092F5113093F7112093F6110E
:1050A0002AE030E03093F9112093F8112EE130E03E
:1050B0003093FB112093FA113093FD112093FC11D2
:1050C0002CE231E03093FF112093FE112FEF3FEFE0
:1050D0003093011220930012809302121092031257
:1050E00021E330E0309305122093041222E030E0F7
:1050F000309307122093061280930812109209121F
:1051000010920A1210920B1210920C1261E081E3BD
:105110000E94D605D092410BC092400BD093430B16
:10512000C093420B86E79FE09093450B8093440B1E
:105130001093470B0093460B1093490B0093480BB9
:1051400080E890E090934B0B80934A0B10924C0BAD
:105150008091480B9091490BDC01ED91FC9100840A
:10516000F185E02D1995892B61F08091480B909184
:10517000490BDC01ED91FC910284F385E02D19953A
:10518000E7CF10924E0B10924D0B1092500B1092D5
:105190004F0B1092520B1092510B4DE050E064E90E
:1051A00072E08DE49BE00E9455158091510B909127
:1051B000520B9093540B8093530BDF91CF911F911F
:1051C0000F91FF90EF90DF90CF90BF90AF909F90A6
:1051D0008F900895CF93DF93CDB7DEB7E5970FB6E5
:1051E000F894DEBF0FBECDBF789484B5826084BDD5
:1051F00084B5816084BD85B5826085BD85B58160DB
:1052000085BD80916E00816080936E001092810058
:105210008091810082608093810080918100816013
:1052200080938100809180008160809380008091D4
:10523000B10084608093B1008091B0008160809360
:10524000B0008091910082608093910080919100E4
:1052500081608093910080919000816080939000A4
:105260008091A10082608093A1008091A100816063
:105270008093A1008091A00081608093A000809124
:1052800021018260809321018091210181608093BE
:1052900021018091200181608093200180917A001A
:1052A000846080937A0080917A00826080937A0093
:1052B00080917A00816080937A0080917A00806882
:1052C00080937A001092C10088E199E20FB6F894B9
:1052D000A895809360000FBE9093600010921E1DF1
:1052E00010921D1D60E08DE00E94D60561E080E314
:1052F0000E944A0561E08EE20E944A0586E090E045
:105300000E945720182F8093141D85E090E00E9482
:1053100057208093131D181748F4612F85E090E003
:105320000E9455208091141D8093131D8091131DA0
:10533000833178F062E186E090E00E94552062E1DE
:1053400085E090E00E94552082E18093141D8093B7
:10535000131D6091131D662309F4E4C1615085E0BB
:1053600090E00E94552060E080E30E944A050E9480
:105370005C06A89584EE9CE10E946821A89536E71A
:10538000A32E3FE0B32E80E3D5018D935D01B4E8F9
:10539000AB16B0E1BB06C1F71092D9111092D8112B
:1053A00088ED91E124E8C22E20E1D22E20E3F6011F
:1053B00021936F018E179F07D1F71092DB11109286
:1053C000DA1140E05BE460E070E08091DC119091E4
:1053D000DD110E9409036AE070E080E090E00E9425
:1053E0002C0684E190E09093F9118093F8118EE1FE
:1053F00090E09093FB118093FA1180910312811138
:1054000037C081E0809303120E9477181092031234
:10541000892B39F080E00E9491068091031281115E
:1054200027C08091041290910512019609F181E044
:105430008093031280910212811118C021E041E093
:1054400068E173E084EE91E10E94B41305E612E096
:1054500030E020E050E040E070E060E084EE91E178
:105460000E94681781116DC10E948113109203126E
:10547000A8956AEF70E080E090E00E942C06E09131
:105480002017F0912117309709F499C0138E128ECE
:10549000118E108E178A168A8DE991E0958F848F70
:1054A000848596EF980F943048F02EEC280F243026
:1054B00028F022EC280F283008F055C02DEB30E002
:1054C000378B268B2BE931E0318F208F2CE231E0B6
:1054D000338F228F943050F02EEC280F243030F090
:1054E00022EC280FB0E0A0E0283010F4A8E6B0E0ED
:1054F0002C91943028F032EC380F383008F427C162
:1055000031E0232B943048F09EEC980F943028F033
:105510008E53B0E0A0E0883010F4A8E6B0E02C9301
:10552000248536EF320F343008F413C18EEC820F2D
:10553000843008F40EC182EC820F883008F00CC170
:105540008DE690E0948B838B343008F008C12650B0
:10555000330B81E001C0880F2A95EAF7858B848D93
:10556000958D0197F1F7828D938D892B41F14091B3
:10557000900350919103E417F50709F14115510586
:1055800069F0DA0153962D913C91D9019C91DA0191
:1055900055968C9180958923D9018C93868D8E7F29
:1055A000868F10928F0310928E03F0939103E093F5
:1055B0009003A389B4898C919589892B8C938091D0
:1055C000221790912317009731F040E855E260E0F0
:1055D00070E00E9409038091241790912517892B70
:1055E00009F4D2C010928D0310928C031092BD0565
:1055F0001092DF051092BB0511E01093BA051092CE
:10560000950561E084E10E944A0561E085E10E9420
:105610004A058091B9008E7F8093B9008091B900CE
:105620008D7F8093B90088E48093B80085E48093EF
:10563000BC0087E993E090938B0380938A0388E909
:1056400093E0909389038093880380E180938F1780
:105650001093BC058093DE051092BD051092DF0506
:1056600081E00E94AC026AE070E080E090E00E947D
:105670002C0682EA92E00E94091584ED92E00E94D5
:10568000091585EE92E00E94091568EE73E080E04E
:1056900090E00E942C06A8958EE296E10E941214DA
:1056A000A895EAEDFBE180EE9BE1DF01AE5FBE4F26
:1056B0002C9121938E179F07C1F740E051EE60E0D7
:1056C00070E08091D61B9091D71B0E94090364E182
:1056D00070E080E090E00E942C0686E090E09093DD
:1056E000DB1C8093DA1C1092E31C1092E21C809168
:1056F000D61B9091D71BDC01ED91FC910084F185C4
:10570000E02D1995181619060CF05EC08091D61B75
:105710009091D71BDC01ED91FC910284F385E02D83
:105720001995E5CF6091141D85E090E00E94552009
:105730008091141D8093131D61E080E30E944A054F
:1057400018CE1092031280E00E94910691CE34E0B0
:10575000D8CE8BE690E0F6CE90E080E0F3CE88E005
:10576000223309F4FBCE84E0233309F4F7CE82E040
:10577000243309F4F3CE82EC820F883018F42E53D0
:10578000330BE7CE81E0EACE809126179091271760
:10579000892B99F00E94DC0783E5809329171092EA
:1057A0002A178091281787FD08C061E00E94D6055E
:1057B00061E0809128170E944A056AE070E080E06D
:1057C00090E00E942C064FCF0E944D038823E1F306
:1057D00086E090E09093DB1C8093DA1C1092E31C2F
:1057E0001092E21CA89580E693EEA6E1B0E08093CB
:1057F000191D90931A1DA0931B1DB0931C1D0E9490
:1058000085066093151D7093161D8093171D909348
:10581000181D81E090E090931E1D80931D1D96E061
:10582000292E312CA89580911D1D90911E1D81302F
:10583000910509F410C1029709F038C484EE9CE187
:105840000E9444158091031281110CC081E0809365
:1058500003120E94771810920312892B19F080E02E
:105860000E949106E6E7FFE0B0E3B193AE16BF06F3
:10587000D9F71092D9111092D811E4E8F0E120E3A1
:105880002193CE16DF06D9F71092DB111092DA11B0
:105890000091E0111091E11180917B00877F80934E
:1058A0007B0040E440937C0080917A008064809388
:1058B0007A0080917A0086FDFCCF8091780060911B
:1058C0007900762F682F072E000C880B990B35D79F
:1058D00020E030E040EA50E46BD720E030E040E8E0
:1058E0005AE366D7D8016D937D938D939C9313975C
:1058F0001BA21AA21DA21CA21FA21EA28E010F5F34
:105900001F4F22E044E0D9D3009709F434C1BC0111
:10591000CE0182960E9494156EA17FA14AA15BA13F
:1059200090E080E08617970730F4FA01E80FF91F3E
:105930004115510521F410929203E2E9F3E0209120
:10594000DA113091DB11D901AC57BF4EE081EC93F5
:105950002F5F3F4F3093DB112093DA110196843093
:10596000910501F7CE0182960E943F152091E21128
:105970003091E311F9017B962F5D3F4F419180916A
:10598000DA119091DB11DC01AC57BF4E4C930196BC
:105990009093DB118093DA112E173F0779F7E0908F
:1059A000DE11F090DF11C7010E9412143701BBE72E
:1059B0006B1ABEEF7B0AF30111821082D3018D9125
:1059C0009C9144975CF5A895C7010E94471E4C0125
:1059D000892BD1F3F7018481843281F78581873463
:1059E00069F78681803551F78781823539F780855F
:1059F0008D3421F78185833409F7D3018D919C91F2
:105A0000119701968D939C9386898134B9F6B0E8FD
:105A10008B1691041CF480E8882E912C8091DE1165
:105A20009091DF110496FC014091DA115091DB1145
:105A30009F01281B390B281539050CF0A8C02191AE
:105A4000DA01AC57BF4E2C934F5F5F4F5093DB1181
:105A50004093DA11E9CF0E9485060091151D10913F
:105A6000161D2091171D3091181D601B710B820BA4
:105A7000930B0091191D10911A1D20911B1D30913F
:105A80001C1D601771078207930708F06DC00E9404
:105A90004D038823E9F10091D81B1091D91B1A827C
:105AA00019821C821B821E821D8243E050E06EEF31
:105AB00072E0CE0101960E945515BE016F5F7F4FC7
:105AC000C8010E943115CE0101960E943F15009138
:105AD000D81B1091D91BC8010E9434134091DA1CC5
